{
  "_format": "hh-sol-artifact-1",
  "contractName": "CommunitySaleOF",
  "sourceName": "contracts/CommunitySaleOF.sol",
  "abi": [
    {
      "inputs": [
        {
          "internalType": "address",
          "name": "tokenAdd_",
          "type": "address"
        },
        {
          "internalType": "address",
          "name": "principal_",
          "type": "address"
        },
        {
          "internalType": "uint256",
          "name": "price_",
          "type": "uint256"
        },
        {
          "internalType": "uint256",
          "name": "totalAmountToRaise_",
          "type": "uint256"
        },
        {
          "internalType": "uint256",
          "name": "totalTokenSupply_",
          "type": "uint256"
        },
        {
          "internalType": "uint256",
          "name": "maxTokenPerUser_",
          "type": "uint256"
        },
        {
          "internalType": "uint32",
          "name": "startTime_",
          "type": "uint32"
        },
        {
          "internalType": "uint32",
          "name": "endTime_",
          "type": "uint32"
        }
      ],
      "stateMutability": "nonpayable",
      "type": "constructor"
    },
    {
      "inputs": [
        {
          "internalType": "bool",
          "name": "status",
          "type": "bool"
        }
      ],
      "name": "changeContractStatus",
      "outputs": [],
      "stateMutability": "nonpayable",
      "type": "function"
    },
    {
      "inputs": [],
      "name": "contractStatus",
      "outputs": [
        {
          "internalType": "bool",
          "name": "",
          "type": "bool"
        }
      ],
      "stateMutability": "view",
      "type": "function"
    },
    {
      "inputs": [
        {
          "internalType": "bool",
          "name": "status",
          "type": "bool"
        }
      ],
      "name": "enableWaitlist",
      "outputs": [],
      "stateMutability": "nonpayable",
      "type": "function"
    },
    {
      "inputs": [],
      "name": "endTimestamp",
      "outputs": [
        {
          "internalType": "uint32",
          "name": "",
          "type": "uint32"
        }
      ],
      "stateMutability": "view",
      "type": "function"
    },
    {
      "inputs": [],
      "name": "getAmountInfo",
      "outputs": [
        {
          "internalType": "uint256",
          "name": "totalAmountToRaise_",
          "type": "uint256"
        },
        {
          "internalType": "uint256",
          "name": "totalAmountRaised_",
          "type": "uint256"
        }
      ],
      "stateMutability": "view",
      "type": "function"
    },
    {
      "inputs": [],
      "name": "getProjectDetails",
      "outputs": [
        {
          "internalType": "address",
          "name": "projectToken_",
          "type": "address"
        },
        {
          "internalType": "address",
          "name": "principalToken_",
          "type": "address"
        },
        {
          "internalType": "bool",
          "name": "contractStatus_",
          "type": "bool"
        }
      ],
      "stateMutability": "view",
      "type": "function"
    },
    {
      "inputs": [],
      "name": "getProjectTokenAddress",
      "outputs": [
        {
          "internalType": "address",
          "name": "",
          "type": "address"
        }
      ],
      "stateMutability": "view",
      "type": "function"
    },
    {
      "inputs": [],
      "name": "getTokenInfo",
      "outputs": [
        {
          "internalType": "uint256",
          "name": "totalTokenSupply_",
          "type": "uint256"
        },
        {
          "internalType": "address",
          "name": "projectToken_",
          "type": "address"
        },
        {
          "internalType": "uint256",
          "name": "tokenPrice_",
          "type": "uint256"
        }
      ],
      "stateMutability": "view",
      "type": "function"
    },
    {
      "inputs": [],
      "name": "isWaitlistEnabled",
      "outputs": [
        {
          "internalType": "bool",
          "name": "",
          "type": "bool"
        }
      ],
      "stateMutability": "view",
      "type": "function"
    },
    {
      "inputs": [],
      "name": "maxTokenPerUser",
      "outputs": [
        {
          "internalType": "uint256",
          "name": "",
          "type": "uint256"
        }
      ],
      "stateMutability": "view",
      "type": "function"
    },
    {
      "inputs": [],
      "name": "owner",
      "outputs": [
        {
          "internalType": "address",
          "name": "",
          "type": "address"
        }
      ],
      "stateMutability": "view",
      "type": "function"
    },
    {
      "inputs": [
        {
          "internalType": "uint256",
          "name": "amount_",
          "type": "uint256"
        }
      ],
      "name": "participate",
      "outputs": [],
      "stateMutability": "nonpayable",
      "type": "function"
    },
    {
      "inputs": [],
      "name": "price",
      "outputs": [
        {
          "internalType": "uint256",
          "name": "",
          "type": "uint256"
        }
      ],
      "stateMutability": "view",
      "type": "function"
    },
    {
      "inputs": [
        {
          "internalType": "address",
          "name": "to_",
          "type": "address"
        }
      ],
      "name": "removeWaitlistedUser",
      "outputs": [],
      "stateMutability": "nonpayable",
      "type": "function"
    },
    {
      "inputs": [
        {
          "internalType": "address",
          "name": "to_",
          "type": "address"
        }
      ],
      "name": "removeWhitelistedUser",
      "outputs": [],
      "stateMutability": "nonpayable",
      "type": "function"
    },
    {
      "inputs": [
        {
          "internalType": "uint32",
          "name": "startTime_",
          "type": "uint32"
        },
        {
          "internalType": "uint32",
          "name": "endTime_",
          "type": "uint32"
        }
      ],
      "name": "setTimeInfo",
      "outputs": [],
      "stateMutability": "nonpayable",
      "type": "function"
    },
    {
      "inputs": [],
      "name": "startTimestamp",
      "outputs": [
        {
          "internalType": "uint32",
          "name": "",
          "type": "uint32"
        }
      ],
      "stateMutability": "view",
      "type": "function"
    },
    {
      "inputs": [],
      "name": "totalAmountRaised",
      "outputs": [
        {
          "internalType": "uint256",
          "name": "",
          "type": "uint256"
        }
      ],
      "stateMutability": "view",
      "type": "function"
    },
    {
      "inputs": [],
      "name": "totalAmountToRaise",
      "outputs": [
        {
          "internalType": "uint256",
          "name": "",
          "type": "uint256"
        }
      ],
      "stateMutability": "view",
      "type": "function"
    },
    {
      "inputs": [],
      "name": "totalParticipatedUser",
      "outputs": [
        {
          "internalType": "uint32",
          "name": "",
          "type": "uint32"
        }
      ],
      "stateMutability": "view",
      "type": "function"
    },
    {
      "inputs": [],
      "name": "totalTokenSupply",
      "outputs": [
        {
          "internalType": "uint256",
          "name": "",
          "type": "uint256"
        }
      ],
      "stateMutability": "view",
      "type": "function"
    },
    {
      "inputs": [
        {
          "internalType": "address",
          "name": "",
          "type": "address"
        }
      ],
      "name": "userToTokenAmount",
      "outputs": [
        {
          "internalType": "uint256",
          "name": "",
          "type": "uint256"
        }
      ],
      "stateMutability": "view",
      "type": "function"
    },
    {
      "inputs": [
        {
          "internalType": "address",
          "name": "",
          "type": "address"
        }
      ],
      "name": "waitListUser",
      "outputs": [
        {
          "internalType": "uint8",
          "name": "",
          "type": "uint8"
        }
      ],
      "stateMutability": "view",
      "type": "function"
    },
    {
      "inputs": [
        {
          "internalType": "address",
          "name": "to_",
          "type": "address"
        }
      ],
      "name": "waitlistUser",
      "outputs": [],
      "stateMutability": "nonpayable",
      "type": "function"
    },
    {
      "inputs": [
        {
          "internalType": "address",
          "name": "",
          "type": "address"
        }
      ],
      "name": "whiteListedUser",
      "outputs": [
        {
          "internalType": "uint8",
          "name": "",
          "type": "uint8"
        }
      ],
      "stateMutability": "view",
      "type": "function"
    },
    {
      "inputs": [
        {
          "internalType": "address",
          "name": "to_",
          "type": "address"
        }
      ],
      "name": "whitelistUser",
      "outputs": [],
      "stateMutability": "nonpayable",
      "type": "function"
    },
    {
      "inputs": [],
      "name": "withdrawRaisedAmount",
      "outputs": [
        {
          "internalType": "uint256",
          "name": "",
          "type": "uint256"
        }
      ],
      "stateMutability": "nonpayable",
      "type": "function"
    },
    {
      "inputs": [
        {
          "internalType": "address",
          "name": "to_",
          "type": "address"
        }
      ],
      "name": "withdrawRemainingTokens",
      "outputs": [
        {
          "internalType": "uint256",
          "name": "",
          "type": "uint256"
        }
      ],
      "stateMutability": "nonpayable",
      "type": "function"
    },
    {
      "stateMutability": "payable",
      "type": "receive"
    }
  ],
  "bytecode": "0x60806040523480156200001157600080fd5b50604051620033ff380380620033ff8339818101604052810190620000379190620001c6565b33600b60006101000a81548173ffffffffffffffffffffffffffffffffffffffff021916908373ffffffffffffffffffffffffffffffffffffffff16021790555087600960026101000a81548173ffffffffffffffffffffffffffffffffffffffff021916908373ffffffffffffffffffffffffffffffffffffffff16021790555086600a60006101000a81548173ffffffffffffffffffffffffffffffffffffffff021916908373ffffffffffffffffffffffffffffffffffffffff1602179055508560068190555084600581905550836003819055508260088190555081600760046101000a81548163ffffffff021916908363ffffffff16021790555080600760086101000a81548163ffffffff021916908363ffffffff1602179055506001600960006101000a81548160ff021916908315150217905550505050505050505062000325565b6000815190506200019281620002d7565b92915050565b600081519050620001a981620002f1565b92915050565b600081519050620001c0816200030b565b92915050565b600080600080600080600080610100898b031215620001e457600080fd5b6000620001f48b828c0162000181565b9850506020620002078b828c0162000181565b97505060406200021a8b828c0162000198565b96505060606200022d8b828c0162000198565b9550506080620002408b828c0162000198565b94505060a0620002538b828c0162000198565b93505060c0620002668b828c01620001af565b92505060e0620002798b828c01620001af565b9150509295985092959890939650565b600062000296826200029d565b9050919050565b600073ffffffffffffffffffffffffffffffffffffffff82169050919050565b6000819050919050565b600063ffffffff82169050919050565b620002e28162000289565b8114620002ee57600080fd5b50565b620002fc81620002bd565b81146200030857600080fd5b50565b6200031681620002c7565b81146200032257600080fd5b50565b6130ca80620003356000396000f3fe6080604052600436106101bb5760003560e01c80639ebe2d0a116100ec578063b7b1b8e91161008a578063e6fd48bc11610064578063e6fd48bc146105fa578063f9af1a9814610625578063fb8130ec14610662578063ff3a9c7e1461068b576101c2565b8063b7b1b8e91461057b578063c6ee20d2146105a4578063ddd851b8146105cf576101c2565b8063a0a7a183116100c6578063a0a7a183146104cf578063a85adeab146104fa578063a936234a14610525578063abb1dc441461054e576101c2565b80639ebe2d0a1461044d5780639f0f815414610478578063a035b1fe146104a4576101c2565b806350c507101161015957806378d185331161013357806378d18533146103a35780637cbb7b46146103ce578063845c9306146103f95780638da5cb5b14610422576101c2565b806350c50710146103125780635affbd971461033d5780635b4e79351461037a576101c2565b806327384cc61161019557806327384cc61461025a578063386f992a146102835780634a4c560d146102c05780634b6c36b5146102e9576101c2565b80630f3ba2e3146101c75780631ca8b6cb14610204578063242d7dba1461022f576101c2565b366101c257005b600080fd5b3480156101d357600080fd5b506101ee60048036038101906101e991906122bd565b6106b8565b6040516101fb9190612a47565b60405180910390f35b34801561021057600080fd5b506102196106d8565b60405161022691906129b1565b60405180910390f35b34801561023b57600080fd5b506102446106de565b60405161025191906129b1565b60405180910390f35b34801561026657600080fd5b50610281600480360381019061027c91906122bd565b6106e4565b005b34801561028f57600080fd5b506102aa60048036038101906102a591906122bd565b6107d0565b6040516102b79190612a47565b60405180910390f35b3480156102cc57600080fd5b506102e760048036038101906102e291906122bd565b6107f0565b005b3480156102f557600080fd5b50610310600480360381019061030b91906122e6565b6108db565b005b34801561031e57600080fd5b50610327610988565b60405161033491906129b1565b60405180910390f35b34801561034957600080fd5b50610364600480360381019061035f91906122bd565b61098e565b60405161037191906129b1565b60405180910390f35b34801561038657600080fd5b506103a1600480360381019061039c91906122bd565b610b25565b005b3480156103af57600080fd5b506103b8610c11565b6040516103c591906129b1565b60405180910390f35b3480156103da57600080fd5b506103e3610da6565b6040516103f091906126c2565b60405180910390f35b34801561040557600080fd5b50610420600480360381019061041b9190612338565b610dd0565b005b34801561042e57600080fd5b5061043761137c565b60405161044491906126c2565b60405180910390f35b34801561045957600080fd5b506104626113a6565b60405161046f91906129b1565b60405180910390f35b34801561048457600080fd5b5061048d6113ac565b60405161049b929190612a03565b60405180910390f35b3480156104b057600080fd5b506104b96113bd565b6040516104c691906129b1565b60405180910390f35b3480156104db57600080fd5b506104e46113c3565b6040516104f19190612a2c565b60405180910390f35b34801561050657600080fd5b5061050f6113d9565b60405161051c9190612a2c565b60405180910390f35b34801561053157600080fd5b5061054c600480360381019061054791906122e6565b6113ef565b005b34801561055a57600080fd5b5061056361149c565b604051610572939291906129cc565b60405180910390f35b34801561058757600080fd5b506105a2600480360381019061059d91906122bd565b6114d5565b005b3480156105b057600080fd5b506105b96115c1565b6040516105c69190612774565b60405180910390f35b3480156105db57600080fd5b506105e46115d4565b6040516105f19190612774565b60405180910390f35b34801561060657600080fd5b5061060f6115e7565b60405161061c9190612a2c565b60405180910390f35b34801561063157600080fd5b5061064c600480360381019061064791906122bd565b6115fd565b60405161065991906129b1565b60405180910390f35b34801561066e57600080fd5b506106896004803603810190610684919061238a565b611615565b005b34801561069757600080fd5b506106a0611765565b6040516106af939291906126dd565b60405180910390f35b60026020528060005260406000206000915054906101000a900460ff1681565b60035481565b60045481565b3373ffffffffffffffffffffffffffffffffffffffff16600b60009054906101000a900473ffffffffffffffffffffffffffffffffffffffff1673ffffffffffffffffffffffffffffffffffffffff1614610774576040517f08c379a000000000000000000000000000000000000000000000000000000000815260040161076b90612991565b60405180910390fd5b6001600260008373ffffffffffffffffffffffffffffffffffffffff1673ffffffffffffffffffffffffffffffffffffffff16815260200190815260200160002060006101000a81548160ff021916908360ff16021790555050565b60016020528060005260406000206000915054906101000a900460ff1681565b3373ffffffffffffffffffffffffffffffffffffffff16600b60009054906101000a900473ffffffffffffffffffffffffffffffffffffffff1673ffffffffffffffffffffffffffffffffffffffff1614610880576040517f08c379a000000000000000000000000000000000000000000000000000000000815260040161087790612991565b60405180910390fd5b60018060008373ffffffffffffffffffffffffffffffffffffffff1673ffffffffffffffffffffffffffffffffffffffff16815260200190815260200160002060006101000a81548160ff021916908360ff16021790555050565b3373ffffffffffffffffffffffffffffffffffffffff16600b60009054906101000a900473ffffffffffffffffffffffffffffffffffffffff1673ffffffffffffffffffffffffffffffffffffffff161461096b576040517f08c379a000000000000000000000000000000000000000000000000000000000815260040161096290612991565b60405180910390fd5b80600960006101000a81548160ff02191690831515021790555050565b60085481565b60003373ffffffffffffffffffffffffffffffffffffffff16600b60009054906101000a900473ffffffffffffffffffffffffffffffffffffffff1673ffffffffffffffffffffffffffffffffffffffff1614610a20576040517f08c379a0000000000000000000000000000000000000000000000000000000008152600401610a1790612991565b60405180910390fd5b6000600960029054906101000a900473ffffffffffffffffffffffffffffffffffffffff1673ffffffffffffffffffffffffffffffffffffffff166370a08231306040518263ffffffff1660e01b8152600401610a7d91906126c2565b60206040518083038186803b158015610a9557600080fd5b505afa158015610aa9573d6000803e3d6000fd5b505050506040513d601f19601f82011682018060405250810190610acd9190612361565b9050610b1c8382600960029054906101000a900473ffffffffffffffffffffffffffffffffffffffff1673ffffffffffffffffffffffffffffffffffffffff166117cb9092919063ffffffff16565b80915050919050565b3373ffffffffffffffffffffffffffffffffffffffff16600b60009054906101000a900473ffffffffffffffffffffffffffffffffffffffff1673ffffffffffffffffffffffffffffffffffffffff1614610bb5576040517f08c379a0000000000000000000000000000000000000000000000000000000008152600401610bac90612991565b60405180910390fd5b6000600260008373ffffffffffffffffffffffffffffffffffffffff1673ffffffffffffffffffffffffffffffffffffffff16815260200190815260200160002060006101000a81548160ff021916908360ff16021790555050565b60003373ffffffffffffffffffffffffffffffffffffffff16600b60009054906101000a900473ffffffffffffffffffffffffffffffffffffffff1673ffffffffffffffffffffffffffffffffffffffff1614610ca3576040517f08c379a0000000000000000000000000000000000000000000000000000000008152600401610c9a90612991565b60405180910390fd5b6000600a60009054906101000a900473ffffffffffffffffffffffffffffffffffffffff1673ffffffffffffffffffffffffffffffffffffffff166370a08231306040518263ffffffff1660e01b8152600401610d0091906126c2565b60206040518083038186803b158015610d1857600080fd5b505afa158015610d2c573d6000803e3d6000fd5b505050506040513d601f19601f82011682018060405250810190610d509190612361565b9050610d9f3382600a60009054906101000a900473ffffffffffffffffffffffffffffffffffffffff1673ffffffffffffffffffffffffffffffffffffffff166117cb9092919063ffffffff16565b8091505090565b6000600960029054906101000a900473ffffffffffffffffffffffffffffffffffffffff16905090565b600960009054906101000a900460ff16610e1f576040517f08c379a0000000000000000000000000000000000000000000000000000000008152600401610e1690612891565b60405180910390fd5b600960019054906101000a900460ff1615610f24576001600260003373ffffffffffffffffffffffffffffffffffffffff1673ffffffffffffffffffffffffffffffffffffffff16815260200190815260200160002060009054906101000a900460ff1660ff161480610ee0575060018060003373ffffffffffffffffffffffffffffffffffffffff1673ffffffffffffffffffffffffffffffffffffffff16815260200190815260200160002060009054906101000a900460ff1660ff16145b610f1f576040517f08c379a0000000000000000000000000000000000000000000000000000000008152600401610f16906127b1565b60405180910390fd5b610fb6565b60018060003373ffffffffffffffffffffffffffffffffffffffff1673ffffffffffffffffffffffffffffffffffffffff16815260200190815260200160002060009054906101000a900460ff1660ff1614610fb5576040517f08c379a0000000000000000000000000000000000000000000000000000000008152600401610fac906128b1565b60405180910390fd5b5b60008111610ff9576040517f08c379a0000000000000000000000000000000000000000000000000000000008152600401610ff0906127d1565b60405180910390fd5b42600760049054906101000a900463ffffffff1663ffffffff1610611053576040517f08c379a000000000000000000000000000000000000000000000000000000000815260040161104a906128d1565b60405180910390fd5b42600760089054906101000a900463ffffffff1663ffffffff16116110ad576040517f08c379a00000000000000000000000000000000000000000000000000000000081526004016110a490612931565b60405180910390fd5b6005546110c58260045461185190919063ffffffff16565b1115611106576040517f08c379a00000000000000000000000000000000000000000000000000000000081526004016110fd90612851565b60405180910390fd5b600061111182611874565b9050600854611167826000803373ffffffffffffffffffffffffffffffffffffffff1673ffffffffffffffffffffffffffffffffffffffff1681526020019081526020016000205461185190919063ffffffff16565b11156111a8576040517f08c379a000000000000000000000000000000000000000000000000000000000815260040161119f90612831565b60405180910390fd5b60008060003373ffffffffffffffffffffffffffffffffffffffff1673ffffffffffffffffffffffffffffffffffffffff168152602001908152602001600020541415611230576001600760008282829054906101000a900463ffffffff166112119190612aea565b92506101000a81548163ffffffff021916908363ffffffff1602179055505b81600460008282546112429190612a94565b9250508190555061129a816000803373ffffffffffffffffffffffffffffffffffffffff1673ffffffffffffffffffffffffffffffffffffffff1681526020019081526020016000205461185190919063ffffffff16565b6000803373ffffffffffffffffffffffffffffffffffffffff1673ffffffffffffffffffffffffffffffffffffffff1681526020019081526020016000208190555061132b333084600a60009054906101000a900473ffffffffffffffffffffffffffffffffffffffff1673ffffffffffffffffffffffffffffffffffffffff166118c3909392919063ffffffff16565b6113783382600960029054906101000a900473ffffffffffffffffffffffffffffffffffffffff1673ffffffffffffffffffffffffffffffffffffffff166117cb9092919063ffffffff16565b5050565b6000600b60009054906101000a900473ffffffffffffffffffffffffffffffffffffffff16905090565b60055481565b600080600454905060055491509091565b60065481565b600760009054906101000a900463ffffffff1681565b600760089054906101000a900463ffffffff1681565b3373ffffffffffffffffffffffffffffffffffffffff16600b60009054906101000a900473ffffffffffffffffffffffffffffffffffffffff1673ffffffffffffffffffffffffffffffffffffffff161461147f576040517f08c379a000000000000000000000000000000000000000000000000000000000815260040161147690612991565b60405180910390fd5b80600960016101000a81548160ff02191690831515021790555050565b60008060006003549250600960029054906101000a900473ffffffffffffffffffffffffffffffffffffffff1691506006549050909192565b3373ffffffffffffffffffffffffffffffffffffffff16600b60009054906101000a900473ffffffffffffffffffffffffffffffffffffffff1673ffffffffffffffffffffffffffffffffffffffff1614611565576040517f08c379a000000000000000000000000000000000000000000000000000000000815260040161155c90612991565b60405180910390fd5b6000600160008373ffffffffffffffffffffffffffffffffffffffff1673ffffffffffffffffffffffffffffffffffffffff16815260200190815260200160002060006101000a81548160ff021916908360ff16021790555050565b600960009054906101000a900460ff1681565b600960019054906101000a900460ff1681565b600760049054906101000a900463ffffffff1681565b60006020528060005260406000206000915090505481565b3373ffffffffffffffffffffffffffffffffffffffff16600b60009054906101000a900473ffffffffffffffffffffffffffffffffffffffff1673ffffffffffffffffffffffffffffffffffffffff16146116a5576040517f08c379a000000000000000000000000000000000000000000000000000000000815260040161169c90612991565b60405180910390fd5b60008263ffffffff161415806116c2575060008163ffffffff1614155b611701576040517f08c379a00000000000000000000000000000000000000000000000000000000081526004016116f8906127f1565b60405180910390fd5b60008263ffffffff16146117315781600760046101000a81548163ffffffff021916908363ffffffff1602179055505b60008163ffffffff16146117615780600760086101000a81548163ffffffff021916908363ffffffff1602179055505b5050565b6000806000600a60009054906101000a900473ffffffffffffffffffffffffffffffffffffffff169150600960029054906101000a900473ffffffffffffffffffffffffffffffffffffffff169250600960009054906101000a900460ff169050909192565b61184c8363a9059cbb60e01b84846040516024016117ea92919061274b565b604051602081830303815290604052907bffffffffffffffffffffffffffffffffffffffffffffffffffffffff19166020820180517bffffffffffffffffffffffffffffffffffffffffffffffffffffffff838183161783525050505061194c565b505050565b60008282846118609190612a94565b915081101561186e57600080fd5b92915050565b60006118bc66038d7ea4c680006118ae66038d7ea4c680006118a061189b87600654611a13565b611c1a565b611c5890919063ffffffff16565b611ca290919063ffffffff16565b9050919050565b611946846323b872dd60e01b8585856040516024016118e493929190612714565b604051602081830303815290604052907bffffffffffffffffffffffffffffffffffffffffffffffffffffffff19166020820180517bffffffffffffffffffffffffffffffffffffffffffffffffffffffff838183161783525050505061194c565b50505050565b60006119ae826040518060400160405280602081526020017f5361666545524332303a206c6f772d6c6576656c2063616c6c206661696c65648152508573ffffffffffffffffffffffffffffffffffffffff16611cd99092919063ffffffff16565b9050600081511115611a0e57808060200190518101906119ce919061230f565b611a0d576040517f08c379a0000000000000000000000000000000000000000000000000000000008152600401611a0490612971565b60405180910390fd5b5b505050565b611a1b61220e565b60008211611a5e576040517f08c379a0000000000000000000000000000000000000000000000000000000008152600401611a5590612871565b60405180910390fd5b6000831415611a9c57604051806020016040528060007bffffffffffffffffffffffffffffffffffffffffffffffffffffffff168152509050611c14565b71ffffffffffffffffffffffffffffffffffff80168311611b6457600082607060ff1685901b611acc9190612b24565b90507bffffffffffffffffffffffffffffffffffffffffffffffffffffffff8016811115611b2f576040517f08c379a0000000000000000000000000000000000000000000000000000000008152600401611b2690612911565b60405180910390fd5b6040518060200160405280827bffffffffffffffffffffffffffffffffffffffffffffffffffffffff16815250915050611c14565b6000611b80846e01000000000000000000000000000085611cf1565b90507bffffffffffffffffffffffffffffffffffffffffffffffffffffffff8016811115611be3576040517f08c379a0000000000000000000000000000000000000000000000000000000008152600401611bda90612911565b60405180910390fd5b6040518060200160405280827bffffffffffffffffffffffffffffffffffffffffffffffffffffffff168152509150505b92915050565b60006612725dd1d243ab82600001517bffffffffffffffffffffffffffffffffffffffffffffffffffffffff16611c519190612b24565b9050919050565b6000611c9a83836040518060400160405280601a81526020017f536166654d6174683a206469766973696f6e206279207a65726f000000000000815250611dbf565b905092915050565b600080831480611cca575081838385611cbb9190612b55565b925082611cc89190612b24565b145b611cd357600080fd5b92915050565b6060611ce88484600085611e22565b90509392505050565b6000806000611d008686611f36565b9150915060008480611d3b577f4e487b7100000000000000000000000000000000000000000000000000000000600052601260045260246000fd5b868809905082811115611d5857600182611d559190612baf565b91505b8083611d649190612baf565b9250848210611da8576040517f08c379a0000000000000000000000000000000000000000000000000000000008152600401611d9f906128f1565b60405180910390fd5b611db3838387611fd1565b93505050509392505050565b60008083118290611e06576040517f08c379a0000000000000000000000000000000000000000000000000000000008152600401611dfd919061278f565b60405180910390fd5b5060008385611e159190612b24565b9050809150509392505050565b606082471015611e67576040517f08c379a0000000000000000000000000000000000000000000000000000000008152600401611e5e90612811565b60405180910390fd5b611e7085612184565b611eaf576040517f08c379a0000000000000000000000000000000000000000000000000000000008152600401611ea690612951565b60405180910390fd5b6000808673ffffffffffffffffffffffffffffffffffffffff168587604051611ed891906126ab565b60006040518083038185875af1925050503d8060008114611f15576040519150601f19603f3d011682016040523d82523d6000602084013e611f1a565b606091505b5091509150611f2a8282866121a7565b92505050949350505050565b60008060007fffffffffffffffffffffffffffffffffffffffffffffffffffffffffffffffff80611f90577f4e487b7100000000000000000000000000000000000000000000000000000000600052601260045260246000fd5b84860990508385611fa19190612b55565b92508281611faf9190612baf565b915082811015611fc957600182611fc69190612baf565b91505b509250929050565b60008060018319611fe29190612a94565b831690508083611ff29190612b24565b925080856120009190612b24565b9450600181600183196120139190612a94565b61201d9190612b24565b6120279190612a94565b846120329190612b55565b8561203d9190612a94565b945060006001905080846120519190612b55565b600261205d9190612baf565b816120689190612b55565b905080846120769190612b55565b60026120829190612baf565b8161208d9190612b55565b9050808461209b9190612b55565b60026120a79190612baf565b816120b29190612b55565b905080846120c09190612b55565b60026120cc9190612baf565b816120d79190612b55565b905080846120e59190612b55565b60026120f19190612baf565b816120fc9190612b55565b9050808461210a9190612b55565b60026121169190612baf565b816121219190612b55565b9050808461212f9190612b55565b600261213b9190612baf565b816121469190612b55565b905080846121549190612b55565b60026121609190612baf565b8161216b9190612b55565b905080866121799190612b55565b925050509392505050565b6000808273ffffffffffffffffffffffffffffffffffffffff163b119050919050565b606083156121b757829050612207565b6000835111156121ca5782518084602001fd5b816040517f08c379a00000000000000000000000000000000000000000000000000000000081526004016121fe919061278f565b60405180910390fd5b9392505050565b604051806020016040528060007bffffffffffffffffffffffffffffffffffffffffffffffffffffffff1681525090565b60008135905061224e81613038565b92915050565b6000813590506122638161304f565b92915050565b6000815190506122788161304f565b92915050565b60008135905061228d81613066565b92915050565b6000815190506122a281613066565b92915050565b6000813590506122b78161307d565b92915050565b6000602082840312156122cf57600080fd5b60006122dd8482850161223f565b91505092915050565b6000602082840312156122f857600080fd5b600061230684828501612254565b91505092915050565b60006020828403121561232157600080fd5b600061232f84828501612269565b91505092915050565b60006020828403121561234a57600080fd5b60006123588482850161227e565b91505092915050565b60006020828403121561237357600080fd5b600061238184828501612293565b91505092915050565b6000806040838503121561239d57600080fd5b60006123ab858286016122a8565b92505060206123bc858286016122a8565b9150509250929050565b6123cf81612be3565b82525050565b6123de81612bf5565b82525050565b60006123ef82612a62565b6123f98185612a78565b9350612409818560208601612c48565b80840191505092915050565b600061242082612a6d565b61242a8185612a83565b935061243a818560208601612c48565b61244381612cd9565b840191505092915050565b600061245b602483612a83565b915061246682612cea565b604082019050919050565b600061247e600e83612a83565b915061248982612d39565b602082019050919050565b60006124a1601a83612a83565b91506124ac82612d62565b602082019050919050565b60006124c4602683612a83565b91506124cf82612d8b565b604082019050919050565b60006124e7601383612a83565b91506124f282612dda565b602082019050919050565b600061250a602483612a83565b915061251582612e03565b604082019050919050565b600061252d602683612a83565b915061253882612e52565b604082019050919050565b6000612550601983612a83565b915061255b82612ea1565b602082019050919050565b6000612573601783612a83565b915061257e82612eca565b602082019050919050565b6000612596601083612a83565b91506125a182612ef3565b602082019050919050565b60006125b9601a83612a83565b91506125c482612f1c565b602082019050919050565b60006125dc601e83612a83565b91506125e782612f45565b602082019050919050565b60006125ff601183612a83565b915061260a82612f6e565b602082019050919050565b6000612622601d83612a83565b915061262d82612f97565b602082019050919050565b6000612645602a83612a83565b915061265082612fc0565b604082019050919050565b6000612668600d83612a83565b91506126738261300f565b602082019050919050565b61268781612c21565b82525050565b61269681612c2b565b82525050565b6126a581612c3b565b82525050565b60006126b782846123e4565b915081905092915050565b60006020820190506126d760008301846123c6565b92915050565b60006060820190506126f260008301866123c6565b6126ff60208301856123c6565b61270c60408301846123d5565b949350505050565b600060608201905061272960008301866123c6565b61273660208301856123c6565b612743604083018461267e565b949350505050565b600060408201905061276060008301856123c6565b61276d602083018461267e565b9392505050565b600060208201905061278960008301846123d5565b92915050565b600060208201905081810360008301526127a98184612415565b905092915050565b600060208201905081810360008301526127ca8161244e565b9050919050565b600060208201905081810360008301526127ea81612471565b9050919050565b6000602082019050818103600083015261280a81612494565b9050919050565b6000602082019050818103600083015261282a816124b7565b9050919050565b6000602082019050818103600083015261284a816124da565b9050919050565b6000602082019050818103600083015261286a816124fd565b9050919050565b6000602082019050818103600083015261288a81612520565b9050919050565b600060208201905081810360008301526128aa81612543565b9050919050565b600060208201905081810360008301526128ca81612566565b9050919050565b600060208201905081810360008301526128ea81612589565b9050919050565b6000602082019050818103600083015261290a816125ac565b9050919050565b6000602082019050818103600083015261292a816125cf565b9050919050565b6000602082019050818103600083015261294a816125f2565b9050919050565b6000602082019050818103600083015261296a81612615565b9050919050565b6000602082019050818103600083015261298a81612638565b9050919050565b600060208201905081810360008301526129aa8161265b565b9050919050565b60006020820190506129c6600083018461267e565b92915050565b60006060820190506129e1600083018661267e565b6129ee60208301856123c6565b6129fb604083018461267e565b949350505050565b6000604082019050612a18600083018561267e565b612a25602083018461267e565b9392505050565b6000602082019050612a41600083018461268d565b92915050565b6000602082019050612a5c600083018461269c565b92915050565b600081519050919050565b600081519050919050565b600081905092915050565b600082825260208201905092915050565b6000612a9f82612c21565b9150612aaa83612c21565b9250827fffffffffffffffffffffffffffffffffffffffffffffffffffffffffffffffff03821115612adf57612ade612c7b565b5b828201905092915050565b6000612af582612c2b565b9150612b0083612c2b565b92508263ffffffff03821115612b1957612b18612c7b565b5b828201905092915050565b6000612b2f82612c21565b9150612b3a83612c21565b925082612b4a57612b49612caa565b5b828204905092915050565b6000612b6082612c21565b9150612b6b83612c21565b9250817fffffffffffffffffffffffffffffffffffffffffffffffffffffffffffffffff0483118215151615612ba457612ba3612c7b565b5b828202905092915050565b6000612bba82612c21565b9150612bc583612c21565b925082821015612bd857612bd7612c7b565b5b828203905092915050565b6000612bee82612c01565b9050919050565b60008115159050919050565b600073ffffffffffffffffffffffffffffffffffffffff82169050919050565b6000819050919050565b600063ffffffff82169050919050565b600060ff82169050919050565b60005b83811015612c66578082015181840152602081019050612c4b565b83811115612c75576000848401525b50505050565b7f4e487b7100000000000000000000000000000000000000000000000000000000600052601160045260246000fd5b7f4e487b7100000000000000000000000000000000000000000000000000000000600052601260045260246000fd5b6000601f19601f8301169050919050565b7f55736572206973206e6f7420696e2077686974656c697374206f72207761697460008201527f6c69737400000000000000000000000000000000000000000000000000000000602082015250565b7f696e76616c696420616d6f756e74000000000000000000000000000000000000600082015250565b7f426f74682074696d657374616d702063616e6e6f742062652030000000000000600082015250565b7f416464726573733a20696e73756666696369656e742062616c616e636520666f60008201527f722063616c6c0000000000000000000000000000000000000000000000000000602082015250565b7f546f6b656e20616d6f756e742065786365656400000000000000000000000000600082015250565b7f416d6f756e74206578636565647320746f74616c20616d6f756e7420746f207260008201527f6169736500000000000000000000000000000000000000000000000000000000602082015250565b7f4669786564506f696e743a3a6672616374696f6e3a206469766973696f6e206260008201527f79207a65726f0000000000000000000000000000000000000000000000000000602082015250565b7f53616c6520436f6e747261637420697320496e61637469766500000000000000600082015250565b7f55736572206973206e6f742077686974656c6973746564000000000000000000600082015250565b7f70726f6a656374206e6f74206c69766500000000000000000000000000000000600082015250565b7f46756c6c4d6174683a3a6d756c4469763a206f766572666c6f77000000000000600082015250565b7f4669786564506f696e743a3a6672616374696f6e3a206f766572666c6f770000600082015250565b7f70726f6a6563742068617320656e646564000000000000000000000000000000600082015250565b7f416464726573733a2063616c6c20746f206e6f6e2d636f6e7472616374000000600082015250565b7f5361666545524332303a204552433230206f7065726174696f6e20646964206e60008201527f6f74207375636365656400000000000000000000000000000000000000000000602082015250565b7f4f776e657220496e76616c696400000000000000000000000000000000000000600082015250565b61304181612be3565b811461304c57600080fd5b50565b61305881612bf5565b811461306357600080fd5b50565b61306f81612c21565b811461307a57600080fd5b50565b61308681612c2b565b811461309157600080fd5b5056fea2646970667358221220794a4c69ab066dc4122188937a40ed418760bdc2d81d83c124721435f0beff4864736f6c63430008040033",
  "linkReferences": {},
  "deployedLinkReferences": {}
}