{
  "_format": "hh-sol-artifact-1",
  "contractName": "CommunitySaleOF",
  "sourceName": "contracts/CommunitySaleOF.sol",
  "abi": [
    {
      "inputs": [
        {
          "internalType": "address",
          "name": "tokenAdd_",
          "type": "address"
        },
        {
          "internalType": "address",
          "name": "principal_",
          "type": "address"
        },
        {
          "internalType": "uint256",
          "name": "price_",
          "type": "uint256"
        },
        {
          "internalType": "uint256",
          "name": "totalAmountToRaise_",
          "type": "uint256"
        },
        {
          "internalType": "uint256",
          "name": "totalTokenSupply_",
          "type": "uint256"
        },
        {
          "internalType": "uint256",
          "name": "maxTokenPerUser_",
          "type": "uint256"
        },
        {
          "internalType": "uint32",
          "name": "startTime_",
          "type": "uint32"
        },
        {
          "internalType": "uint32",
          "name": "endTime_",
          "type": "uint32"
        }
      ],
      "stateMutability": "nonpayable",
      "type": "constructor"
    },
    {
      "inputs": [
        {
          "internalType": "bool",
          "name": "status",
          "type": "bool"
        }
      ],
      "name": "changeContractStatus",
      "outputs": [],
      "stateMutability": "nonpayable",
      "type": "function"
    },
    {
      "inputs": [],
      "name": "contractStatus",
      "outputs": [
        {
          "internalType": "bool",
          "name": "",
          "type": "bool"
        }
      ],
      "stateMutability": "view",
      "type": "function"
    },
    {
      "inputs": [
        {
          "internalType": "bool",
          "name": "status",
          "type": "bool"
        }
      ],
      "name": "enableWaitlist",
      "outputs": [],
      "stateMutability": "nonpayable",
      "type": "function"
    },
    {
      "inputs": [],
      "name": "endTimestamp",
      "outputs": [
        {
          "internalType": "uint32",
          "name": "",
          "type": "uint32"
        }
      ],
      "stateMutability": "view",
      "type": "function"
    },
    {
      "inputs": [],
      "name": "getAmountInfo",
      "outputs": [
        {
          "internalType": "uint256",
          "name": "totalAmountToRaise_",
          "type": "uint256"
        },
        {
          "internalType": "uint256",
          "name": "totalAmountRaised_",
          "type": "uint256"
        }
      ],
      "stateMutability": "view",
      "type": "function"
    },
    {
      "inputs": [],
      "name": "getProjectDetails",
      "outputs": [
        {
          "internalType": "address",
          "name": "projectToken_",
          "type": "address"
        },
        {
          "internalType": "address",
          "name": "principalToken_",
          "type": "address"
        },
        {
          "internalType": "bool",
          "name": "contractStatus_",
          "type": "bool"
        }
      ],
      "stateMutability": "view",
      "type": "function"
    },
    {
      "inputs": [],
      "name": "getProjectTokenAddress",
      "outputs": [
        {
          "internalType": "address",
          "name": "",
          "type": "address"
        }
      ],
      "stateMutability": "view",
      "type": "function"
    },
    {
      "inputs": [],
      "name": "getTokenInfo",
      "outputs": [
        {
          "internalType": "uint256",
          "name": "totalTokenSupply_",
          "type": "uint256"
        },
        {
          "internalType": "address",
          "name": "projectToken_",
          "type": "address"
        },
        {
          "internalType": "uint256",
          "name": "tokenPrice_",
          "type": "uint256"
        }
      ],
      "stateMutability": "view",
      "type": "function"
    },
    {
      "inputs": [],
      "name": "isWaitlistEnabled",
      "outputs": [
        {
          "internalType": "bool",
          "name": "",
          "type": "bool"
        }
      ],
      "stateMutability": "view",
      "type": "function"
    },
    {
      "inputs": [],
      "name": "maxTokenPerUser",
      "outputs": [
        {
          "internalType": "uint256",
          "name": "",
          "type": "uint256"
        }
      ],
      "stateMutability": "view",
      "type": "function"
    },
    {
      "inputs": [],
      "name": "owner",
      "outputs": [
        {
          "internalType": "address",
          "name": "",
          "type": "address"
        }
      ],
      "stateMutability": "view",
      "type": "function"
    },
    {
      "inputs": [
        {
          "internalType": "uint256",
          "name": "amount_",
          "type": "uint256"
        }
      ],
      "name": "participate",
      "outputs": [],
      "stateMutability": "nonpayable",
      "type": "function"
    },
    {
      "inputs": [],
      "name": "price",
      "outputs": [
        {
          "internalType": "uint256",
          "name": "",
          "type": "uint256"
        }
      ],
      "stateMutability": "view",
      "type": "function"
    },
    {
      "inputs": [
        {
          "internalType": "address",
          "name": "to_",
          "type": "address"
        }
      ],
      "name": "removeWaitlistedUser",
      "outputs": [],
      "stateMutability": "nonpayable",
      "type": "function"
    },
    {
      "inputs": [
        {
          "internalType": "address",
          "name": "to_",
          "type": "address"
        }
      ],
      "name": "removeWhitelistedUser",
      "outputs": [],
      "stateMutability": "nonpayable",
      "type": "function"
    },
    {
      "inputs": [
        {
          "internalType": "uint32",
          "name": "startTime_",
          "type": "uint32"
        },
        {
          "internalType": "uint32",
          "name": "endTime_",
          "type": "uint32"
        }
      ],
      "name": "setTimeInfo",
      "outputs": [],
      "stateMutability": "nonpayable",
      "type": "function"
    },
    {
      "inputs": [],
      "name": "startTimestamp",
      "outputs": [
        {
          "internalType": "uint32",
          "name": "",
          "type": "uint32"
        }
      ],
      "stateMutability": "view",
      "type": "function"
    },
    {
      "inputs": [],
      "name": "totalAmountRaised",
      "outputs": [
        {
          "internalType": "uint256",
          "name": "",
          "type": "uint256"
        }
      ],
      "stateMutability": "view",
      "type": "function"
    },
    {
      "inputs": [],
      "name": "totalAmountToRaise",
      "outputs": [
        {
          "internalType": "uint256",
          "name": "",
          "type": "uint256"
        }
      ],
      "stateMutability": "view",
      "type": "function"
    },
    {
      "inputs": [],
      "name": "totalParticipatedUser",
      "outputs": [
        {
          "internalType": "uint32",
          "name": "",
          "type": "uint32"
        }
      ],
      "stateMutability": "view",
      "type": "function"
    },
    {
      "inputs": [],
      "name": "totalTokenSupply",
      "outputs": [
        {
          "internalType": "uint256",
          "name": "",
          "type": "uint256"
        }
      ],
      "stateMutability": "view",
      "type": "function"
    },
    {
      "inputs": [
        {
          "internalType": "address",
          "name": "",
          "type": "address"
        }
      ],
      "name": "userToTokenAmount",
      "outputs": [
        {
          "internalType": "uint256",
          "name": "",
          "type": "uint256"
        }
      ],
      "stateMutability": "view",
      "type": "function"
    },
    {
      "inputs": [
        {
          "internalType": "address",
          "name": "",
          "type": "address"
        }
      ],
      "name": "waitListUser",
      "outputs": [
        {
          "internalType": "uint8",
          "name": "",
          "type": "uint8"
        }
      ],
      "stateMutability": "view",
      "type": "function"
    },
    {
      "inputs": [
        {
          "internalType": "address",
          "name": "to_",
          "type": "address"
        }
      ],
      "name": "waitlistUser",
      "outputs": [],
      "stateMutability": "nonpayable",
      "type": "function"
    },
    {
      "inputs": [
        {
          "internalType": "address",
          "name": "",
          "type": "address"
        }
      ],
      "name": "whiteListedUser",
      "outputs": [
        {
          "internalType": "uint8",
          "name": "",
          "type": "uint8"
        }
      ],
      "stateMutability": "view",
      "type": "function"
    },
    {
      "inputs": [
        {
          "internalType": "address",
          "name": "to_",
          "type": "address"
        }
      ],
      "name": "whitelistUser",
      "outputs": [],
      "stateMutability": "nonpayable",
      "type": "function"
    },
    {
      "inputs": [
        {
          "internalType": "address[]",
          "name": "userList",
          "type": "address[]"
        }
      ],
      "name": "whitelistUsers",
      "outputs": [],
      "stateMutability": "nonpayable",
      "type": "function"
    },
    {
      "inputs": [],
      "name": "withdrawRaisedAmount",
      "outputs": [
        {
          "internalType": "uint256",
          "name": "",
          "type": "uint256"
        }
      ],
      "stateMutability": "nonpayable",
      "type": "function"
    },
    {
      "inputs": [
        {
          "internalType": "address",
          "name": "to_",
          "type": "address"
        }
      ],
      "name": "withdrawRemainingTokens",
      "outputs": [
        {
          "internalType": "uint256",
          "name": "",
          "type": "uint256"
        }
      ],
      "stateMutability": "nonpayable",
      "type": "function"
    },
    {
      "stateMutability": "payable",
      "type": "receive"
    }
  ],
  "bytecode": "0x60806040523480156200001157600080fd5b50604051620035c3380380620035c38339818101604052810190620000379190620001c6565b33600b60006101000a81548173ffffffffffffffffffffffffffffffffffffffff021916908373ffffffffffffffffffffffffffffffffffffffff16021790555087600960026101000a81548173ffffffffffffffffffffffffffffffffffffffff021916908373ffffffffffffffffffffffffffffffffffffffff16021790555086600a60006101000a81548173ffffffffffffffffffffffffffffffffffffffff021916908373ffffffffffffffffffffffffffffffffffffffff1602179055508560068190555084600581905550836003819055508260088190555081600760046101000a81548163ffffffff021916908363ffffffff16021790555080600760086101000a81548163ffffffff021916908363ffffffff1602179055506001600960006101000a81548160ff021916908315150217905550505050505050505062000325565b6000815190506200019281620002d7565b92915050565b600081519050620001a981620002f1565b92915050565b600081519050620001c0816200030b565b92915050565b600080600080600080600080610100898b031215620001e457600080fd5b6000620001f48b828c0162000181565b9850506020620002078b828c0162000181565b97505060406200021a8b828c0162000198565b96505060606200022d8b828c0162000198565b9550506080620002408b828c0162000198565b94505060a0620002538b828c0162000198565b93505060c0620002668b828c01620001af565b92505060e0620002798b828c01620001af565b9150509295985092959890939650565b600062000296826200029d565b9050919050565b600073ffffffffffffffffffffffffffffffffffffffff82169050919050565b6000819050919050565b600063ffffffff82169050919050565b620002e28162000289565b8114620002ee57600080fd5b50565b620002fc81620002bd565b81146200030857600080fd5b50565b6200031681620002c7565b81146200032257600080fd5b50565b61328e80620003356000396000f3fe6080604052600436106101c65760003560e01c80639ebe2d0a116100f7578063b7b1b8e911610095578063edec5f2711610064578063edec5f2714610630578063f9af1a9814610659578063fb8130ec14610696578063ff3a9c7e146106bf576101cd565b8063b7b1b8e914610586578063c6ee20d2146105af578063ddd851b8146105da578063e6fd48bc14610605576101cd565b8063a0a7a183116100d1578063a0a7a183146104da578063a85adeab14610505578063a936234a14610530578063abb1dc4414610559576101cd565b80639ebe2d0a146104585780639f0f815414610483578063a035b1fe146104af576101cd565b806350c507101161016457806378d185331161013e57806378d18533146103ae5780637cbb7b46146103d9578063845c9306146104045780638da5cb5b1461042d576101cd565b806350c507101461031d5780635affbd97146103485780635b4e793514610385576101cd565b806327384cc6116101a057806327384cc614610265578063386f992a1461028e5780634a4c560d146102cb5780634b6c36b5146102f4576101cd565b80630f3ba2e3146101d25780631ca8b6cb1461020f578063242d7dba1461023a576101cd565b366101cd57005b600080fd5b3480156101de57600080fd5b506101f960048036038101906101f4919061240f565b6106ec565b6040516102069190612bde565b60405180910390f35b34801561021b57600080fd5b5061022461070c565b6040516102319190612b48565b60405180910390f35b34801561024657600080fd5b5061024f610712565b60405161025c9190612b48565b60405180910390f35b34801561027157600080fd5b5061028c6004803603810190610287919061240f565b610718565b005b34801561029a57600080fd5b506102b560048036038101906102b0919061240f565b6107b4565b6040516102c29190612bde565b60405180910390f35b3480156102d757600080fd5b506102f260048036038101906102ed919061240f565b6107d4565b005b34801561030057600080fd5b5061031b6004803603810190610316919061247d565b610870565b005b34801561032957600080fd5b5061033261091d565b60405161033f9190612b48565b60405180910390f35b34801561035457600080fd5b5061036f600480360381019061036a919061240f565b610923565b60405161037c9190612b48565b60405180910390f35b34801561039157600080fd5b506103ac60048036038101906103a7919061240f565b610aba565b005b3480156103ba57600080fd5b506103c3610ba6565b6040516103d09190612b48565b60405180910390f35b3480156103e557600080fd5b506103ee610d3b565b6040516103fb9190612859565b60405180910390f35b34801561041057600080fd5b5061042b600480360381019061042691906124cf565b610d65565b005b34801561043957600080fd5b50610442611311565b60405161044f9190612859565b60405180910390f35b34801561046457600080fd5b5061046d61133b565b60405161047a9190612b48565b60405180910390f35b34801561048f57600080fd5b50610498611341565b6040516104a6929190612b9a565b60405180910390f35b3480156104bb57600080fd5b506104c4611352565b6040516104d19190612b48565b60405180910390f35b3480156104e657600080fd5b506104ef611358565b6040516104fc9190612bc3565b60405180910390f35b34801561051157600080fd5b5061051a61136e565b6040516105279190612bc3565b60405180910390f35b34801561053c57600080fd5b506105576004803603810190610552919061247d565b611384565b005b34801561056557600080fd5b5061056e611431565b60405161057d93929190612b63565b60405180910390f35b34801561059257600080fd5b506105ad60048036038101906105a8919061240f565b61146a565b005b3480156105bb57600080fd5b506105c4611556565b6040516105d1919061290b565b60405180910390f35b3480156105e657600080fd5b506105ef611569565b6040516105fc919061290b565b60405180910390f35b34801561061157600080fd5b5061061a61157c565b6040516106279190612bc3565b60405180910390f35b34801561063c57600080fd5b5061065760048036038101906106529190612438565b611592565b005b34801561066557600080fd5b50610680600480360381019061067b919061240f565b6116aa565b60405161068d9190612b48565b60405180910390f35b3480156106a257600080fd5b506106bd60048036038101906106b89190612521565b6116c2565b005b3480156106cb57600080fd5b506106d4611812565b6040516106e393929190612874565b60405180910390f35b60026020528060005260406000206000915054906101000a900460ff1681565b60035481565b60045481565b3373ffffffffffffffffffffffffffffffffffffffff16600b60009054906101000a900473ffffffffffffffffffffffffffffffffffffffff1673ffffffffffffffffffffffffffffffffffffffff16146107a8576040517f08c379a000000000000000000000000000000000000000000000000000000000815260040161079f90612b28565b60405180910390fd5b6107b181611878565b50565b60016020528060005260406000206000915054906101000a900460ff1681565b3373ffffffffffffffffffffffffffffffffffffffff16600b60009054906101000a900473ffffffffffffffffffffffffffffffffffffffff1673ffffffffffffffffffffffffffffffffffffffff1614610864576040517f08c379a000000000000000000000000000000000000000000000000000000000815260040161085b90612b28565b60405180910390fd5b61086d81611878565b50565b3373ffffffffffffffffffffffffffffffffffffffff16600b60009054906101000a900473ffffffffffffffffffffffffffffffffffffffff1673ffffffffffffffffffffffffffffffffffffffff1614610900576040517f08c379a00000000000000000000000000000000000000000000000000000000081526004016108f790612b28565b60405180910390fd5b80600960006101000a81548160ff02191690831515021790555050565b60085481565b60003373ffffffffffffffffffffffffffffffffffffffff16600b60009054906101000a900473ffffffffffffffffffffffffffffffffffffffff1673ffffffffffffffffffffffffffffffffffffffff16146109b5576040517f08c379a00000000000000000000000000000000000000000000000000000000081526004016109ac90612b28565b60405180910390fd5b6000600960029054906101000a900473ffffffffffffffffffffffffffffffffffffffff1673ffffffffffffffffffffffffffffffffffffffff166370a08231306040518263ffffffff1660e01b8152600401610a129190612859565b60206040518083038186803b158015610a2a57600080fd5b505afa158015610a3e573d6000803e3d6000fd5b505050506040513d601f19601f82011682018060405250810190610a6291906124f8565b9050610ab18382600960029054906101000a900473ffffffffffffffffffffffffffffffffffffffff1673ffffffffffffffffffffffffffffffffffffffff166118d39092919063ffffffff16565b80915050919050565b3373ffffffffffffffffffffffffffffffffffffffff16600b60009054906101000a900473ffffffffffffffffffffffffffffffffffffffff1673ffffffffffffffffffffffffffffffffffffffff1614610b4a576040517f08c379a0000000000000000000000000000000000000000000000000000000008152600401610b4190612b28565b60405180910390fd5b6000600260008373ffffffffffffffffffffffffffffffffffffffff1673ffffffffffffffffffffffffffffffffffffffff16815260200190815260200160002060006101000a81548160ff021916908360ff16021790555050565b60003373ffffffffffffffffffffffffffffffffffffffff16600b60009054906101000a900473ffffffffffffffffffffffffffffffffffffffff1673ffffffffffffffffffffffffffffffffffffffff1614610c38576040517f08c379a0000000000000000000000000000000000000000000000000000000008152600401610c2f90612b28565b60405180910390fd5b6000600a60009054906101000a900473ffffffffffffffffffffffffffffffffffffffff1673ffffffffffffffffffffffffffffffffffffffff166370a08231306040518263ffffffff1660e01b8152600401610c959190612859565b60206040518083038186803b158015610cad57600080fd5b505afa158015610cc1573d6000803e3d6000fd5b505050506040513d601f19601f82011682018060405250810190610ce591906124f8565b9050610d343382600a60009054906101000a900473ffffffffffffffffffffffffffffffffffffffff1673ffffffffffffffffffffffffffffffffffffffff166118d39092919063ffffffff16565b8091505090565b6000600960029054906101000a900473ffffffffffffffffffffffffffffffffffffffff16905090565b600960009054906101000a900460ff16610db4576040517f08c379a0000000000000000000000000000000000000000000000000000000008152600401610dab90612a28565b60405180910390fd5b600960019054906101000a900460ff1615610eb9576001600260003373ffffffffffffffffffffffffffffffffffffffff1673ffffffffffffffffffffffffffffffffffffffff16815260200190815260200160002060009054906101000a900460ff1660ff161480610e75575060018060003373ffffffffffffffffffffffffffffffffffffffff1673ffffffffffffffffffffffffffffffffffffffff16815260200190815260200160002060009054906101000a900460ff1660ff16145b610eb4576040517f08c379a0000000000000000000000000000000000000000000000000000000008152600401610eab90612948565b60405180910390fd5b610f4b565b60018060003373ffffffffffffffffffffffffffffffffffffffff1673ffffffffffffffffffffffffffffffffffffffff16815260200190815260200160002060009054906101000a900460ff1660ff1614610f4a576040517f08c379a0000000000000000000000000000000000000000000000000000000008152600401610f4190612a48565b60405180910390fd5b5b60008111610f8e576040517f08c379a0000000000000000000000000000000000000000000000000000000008152600401610f8590612968565b60405180910390fd5b42600760049054906101000a900463ffffffff1663ffffffff1610610fe8576040517f08c379a0000000000000000000000000000000000000000000000000000000008152600401610fdf90612a68565b60405180910390fd5b42600760089054906101000a900463ffffffff1663ffffffff1611611042576040517f08c379a000000000000000000000000000000000000000000000000000000000815260040161103990612ac8565b60405180910390fd5b60055461105a8260045461195990919063ffffffff16565b111561109b576040517f08c379a0000000000000000000000000000000000000000000000000000000008152600401611092906129e8565b60405180910390fd5b60006110a68261197c565b90506008546110fc826000803373ffffffffffffffffffffffffffffffffffffffff1673ffffffffffffffffffffffffffffffffffffffff1681526020019081526020016000205461195990919063ffffffff16565b111561113d576040517f08c379a0000000000000000000000000000000000000000000000000000000008152600401611134906129c8565b60405180910390fd5b60008060003373ffffffffffffffffffffffffffffffffffffffff1673ffffffffffffffffffffffffffffffffffffffff1681526020019081526020016000205414156111c5576001600760008282829054906101000a900463ffffffff166111a69190612c81565b92506101000a81548163ffffffff021916908363ffffffff1602179055505b81600460008282546111d79190612c2b565b9250508190555061122f816000803373ffffffffffffffffffffffffffffffffffffffff1673ffffffffffffffffffffffffffffffffffffffff1681526020019081526020016000205461195990919063ffffffff16565b6000803373ffffffffffffffffffffffffffffffffffffffff1673ffffffffffffffffffffffffffffffffffffffff168152602001908152602001600020819055506112c0333084600a60009054906101000a900473ffffffffffffffffffffffffffffffffffffffff1673ffffffffffffffffffffffffffffffffffffffff166119cb909392919063ffffffff16565b61130d3382600960029054906101000a900473ffffffffffffffffffffffffffffffffffffffff1673ffffffffffffffffffffffffffffffffffffffff166118d39092919063ffffffff16565b5050565b6000600b60009054906101000a900473ffffffffffffffffffffffffffffffffffffffff16905090565b60055481565b600080600454905060055491509091565b60065481565b600760009054906101000a900463ffffffff1681565b600760089054906101000a900463ffffffff1681565b3373ffffffffffffffffffffffffffffffffffffffff16600b60009054906101000a900473ffffffffffffffffffffffffffffffffffffffff1673ffffffffffffffffffffffffffffffffffffffff1614611414576040517f08c379a000000000000000000000000000000000000000000000000000000000815260040161140b90612b28565b60405180910390fd5b80600960016101000a81548160ff02191690831515021790555050565b60008060006003549250600960029054906101000a900473ffffffffffffffffffffffffffffffffffffffff1691506006549050909192565b3373ffffffffffffffffffffffffffffffffffffffff16600b60009054906101000a900473ffffffffffffffffffffffffffffffffffffffff1673ffffffffffffffffffffffffffffffffffffffff16146114fa576040517f08c379a00000000000000000000000000000000000000000000000000000000081526004016114f190612b28565b60405180910390fd5b6000600160008373ffffffffffffffffffffffffffffffffffffffff1673ffffffffffffffffffffffffffffffffffffffff16815260200190815260200160002060006101000a81548160ff021916908360ff16021790555050565b600960009054906101000a900460ff1681565b600960019054906101000a900460ff1681565b600760049054906101000a900463ffffffff1681565b3373ffffffffffffffffffffffffffffffffffffffff16600b60009054906101000a900473ffffffffffffffffffffffffffffffffffffffff1673ffffffffffffffffffffffffffffffffffffffff1614611622576040517f08c379a000000000000000000000000000000000000000000000000000000000815260040161161990612b28565b60405180910390fd5b60005b828290508163ffffffff1610156116a55761169283838363ffffffff16818110611678577f4e487b7100000000000000000000000000000000000000000000000000000000600052603260045260246000fd5b905060200201602081019061168d919061240f565b611878565b808061169d90612e12565b915050611625565b505050565b60006020528060005260406000206000915090505481565b3373ffffffffffffffffffffffffffffffffffffffff16600b60009054906101000a900473ffffffffffffffffffffffffffffffffffffffff1673ffffffffffffffffffffffffffffffffffffffff1614611752576040517f08c379a000000000000000000000000000000000000000000000000000000000815260040161174990612b28565b60405180910390fd5b60008263ffffffff1614158061176f575060008163ffffffff1614155b6117ae576040517f08c379a00000000000000000000000000000000000000000000000000000000081526004016117a590612988565b60405180910390fd5b60008263ffffffff16146117de5781600760046101000a81548163ffffffff021916908363ffffffff1602179055505b60008163ffffffff161461180e5780600760086101000a81548163ffffffff021916908363ffffffff1602179055505b5050565b6000806000600a60009054906101000a900473ffffffffffffffffffffffffffffffffffffffff169150600960029054906101000a900473ffffffffffffffffffffffffffffffffffffffff169250600960009054906101000a900460ff169050909192565b60018060008373ffffffffffffffffffffffffffffffffffffffff1673ffffffffffffffffffffffffffffffffffffffff16815260200190815260200160002060006101000a81548160ff021916908360ff16021790555050565b6119548363a9059cbb60e01b84846040516024016118f29291906128e2565b604051602081830303815290604052907bffffffffffffffffffffffffffffffffffffffffffffffffffffffff19166020820180517bffffffffffffffffffffffffffffffffffffffffffffffffffffffff8381831617835250505050611a54565b505050565b60008282846119689190612c2b565b915081101561197657600080fd5b92915050565b60006119c466038d7ea4c680006119b666038d7ea4c680006119a86119a387600654611b1b565b611d22565b611d6090919063ffffffff16565b611daa90919063ffffffff16565b9050919050565b611a4e846323b872dd60e01b8585856040516024016119ec939291906128ab565b604051602081830303815290604052907bffffffffffffffffffffffffffffffffffffffffffffffffffffffff19166020820180517bffffffffffffffffffffffffffffffffffffffffffffffffffffffff8381831617835250505050611a54565b50505050565b6000611ab6826040518060400160405280602081526020017f5361666545524332303a206c6f772d6c6576656c2063616c6c206661696c65648152508573ffffffffffffffffffffffffffffffffffffffff16611de19092919063ffffffff16565b9050600081511115611b165780806020019051810190611ad691906124a6565b611b15576040517f08c379a0000000000000000000000000000000000000000000000000000000008152600401611b0c90612b08565b60405180910390fd5b5b505050565b611b23612316565b60008211611b66576040517f08c379a0000000000000000000000000000000000000000000000000000000008152600401611b5d90612a08565b60405180910390fd5b6000831415611ba457604051806020016040528060007bffffffffffffffffffffffffffffffffffffffffffffffffffffffff168152509050611d1c565b71ffffffffffffffffffffffffffffffffffff80168311611c6c57600082607060ff1685901b611bd49190612cbb565b90507bffffffffffffffffffffffffffffffffffffffffffffffffffffffff8016811115611c37576040517f08c379a0000000000000000000000000000000000000000000000000000000008152600401611c2e90612aa8565b60405180910390fd5b6040518060200160405280827bffffffffffffffffffffffffffffffffffffffffffffffffffffffff16815250915050611d1c565b6000611c88846e01000000000000000000000000000085611df9565b90507bffffffffffffffffffffffffffffffffffffffffffffffffffffffff8016811115611ceb576040517f08c379a0000000000000000000000000000000000000000000000000000000008152600401611ce290612aa8565b60405180910390fd5b6040518060200160405280827bffffffffffffffffffffffffffffffffffffffffffffffffffffffff168152509150505b92915050565b60006612725dd1d243ab82600001517bffffffffffffffffffffffffffffffffffffffffffffffffffffffff16611d599190612cbb565b9050919050565b6000611da283836040518060400160405280601a81526020017f536166654d6174683a206469766973696f6e206279207a65726f000000000000815250611ec7565b905092915050565b600080831480611dd2575081838385611dc39190612cec565b925082611dd09190612cbb565b145b611ddb57600080fd5b92915050565b6060611df08484600085611f2a565b90509392505050565b6000806000611e08868661203e565b9150915060008480611e43577f4e487b7100000000000000000000000000000000000000000000000000000000600052601260045260246000fd5b868809905082811115611e6057600182611e5d9190612d46565b91505b8083611e6c9190612d46565b9250848210611eb0576040517f08c379a0000000000000000000000000000000000000000000000000000000008152600401611ea790612a88565b60405180910390fd5b611ebb8383876120d9565b93505050509392505050565b60008083118290611f0e576040517f08c379a0000000000000000000000000000000000000000000000000000000008152600401611f059190612926565b60405180910390fd5b5060008385611f1d9190612cbb565b9050809150509392505050565b606082471015611f6f576040517f08c379a0000000000000000000000000000000000000000000000000000000008152600401611f66906129a8565b60405180910390fd5b611f788561228c565b611fb7576040517f08c379a0000000000000000000000000000000000000000000000000000000008152600401611fae90612ae8565b60405180910390fd5b6000808673ffffffffffffffffffffffffffffffffffffffff168587604051611fe09190612842565b60006040518083038185875af1925050503d806000811461201d576040519150601f19603f3d011682016040523d82523d6000602084013e612022565b606091505b50915091506120328282866122af565b92505050949350505050565b60008060007fffffffffffffffffffffffffffffffffffffffffffffffffffffffffffffffff80612098577f4e487b7100000000000000000000000000000000000000000000000000000000600052601260045260246000fd5b848609905083856120a99190612cec565b925082816120b79190612d46565b9150828110156120d1576001826120ce9190612d46565b91505b509250929050565b600080600183196120ea9190612c2b565b8316905080836120fa9190612cbb565b925080856121089190612cbb565b94506001816001831961211b9190612c2b565b6121259190612cbb565b61212f9190612c2b565b8461213a9190612cec565b856121459190612c2b565b945060006001905080846121599190612cec565b60026121659190612d46565b816121709190612cec565b9050808461217e9190612cec565b600261218a9190612d46565b816121959190612cec565b905080846121a39190612cec565b60026121af9190612d46565b816121ba9190612cec565b905080846121c89190612cec565b60026121d49190612d46565b816121df9190612cec565b905080846121ed9190612cec565b60026121f99190612d46565b816122049190612cec565b905080846122129190612cec565b600261221e9190612d46565b816122299190612cec565b905080846122379190612cec565b60026122439190612d46565b8161224e9190612cec565b9050808461225c9190612cec565b60026122689190612d46565b816122739190612cec565b905080866122819190612cec565b925050509392505050565b6000808273ffffffffffffffffffffffffffffffffffffffff163b119050919050565b606083156122bf5782905061230f565b6000835111156122d25782518084602001fd5b816040517f08c379a00000000000000000000000000000000000000000000000000000000081526004016123069190612926565b60405180910390fd5b9392505050565b604051806020016040528060007bffffffffffffffffffffffffffffffffffffffffffffffffffffffff1681525090565b600081359050612356816131fc565b92915050565b60008083601f84011261236e57600080fd5b8235905067ffffffffffffffff81111561238757600080fd5b60208301915083602082028301111561239f57600080fd5b9250929050565b6000813590506123b581613213565b92915050565b6000815190506123ca81613213565b92915050565b6000813590506123df8161322a565b92915050565b6000815190506123f48161322a565b92915050565b60008135905061240981613241565b92915050565b60006020828403121561242157600080fd5b600061242f84828501612347565b91505092915050565b6000806020838503121561244b57600080fd5b600083013567ffffffffffffffff81111561246557600080fd5b6124718582860161235c565b92509250509250929050565b60006020828403121561248f57600080fd5b600061249d848285016123a6565b91505092915050565b6000602082840312156124b857600080fd5b60006124c6848285016123bb565b91505092915050565b6000602082840312156124e157600080fd5b60006124ef848285016123d0565b91505092915050565b60006020828403121561250a57600080fd5b6000612518848285016123e5565b91505092915050565b6000806040838503121561253457600080fd5b6000612542858286016123fa565b9250506020612553858286016123fa565b9150509250929050565b61256681612d7a565b82525050565b61257581612d8c565b82525050565b600061258682612bf9565b6125908185612c0f565b93506125a0818560208601612ddf565b80840191505092915050565b60006125b782612c04565b6125c18185612c1a565b93506125d1818560208601612ddf565b6125da81612e9d565b840191505092915050565b60006125f2602483612c1a565b91506125fd82612eae565b604082019050919050565b6000612615600e83612c1a565b915061262082612efd565b602082019050919050565b6000612638601a83612c1a565b915061264382612f26565b602082019050919050565b600061265b602683612c1a565b915061266682612f4f565b604082019050919050565b600061267e601383612c1a565b915061268982612f9e565b602082019050919050565b60006126a1602483612c1a565b91506126ac82612fc7565b604082019050919050565b60006126c4602683612c1a565b91506126cf82613016565b604082019050919050565b60006126e7601983612c1a565b91506126f282613065565b602082019050919050565b600061270a601783612c1a565b91506127158261308e565b602082019050919050565b600061272d601083612c1a565b9150612738826130b7565b602082019050919050565b6000612750601a83612c1a565b915061275b826130e0565b602082019050919050565b6000612773601e83612c1a565b915061277e82613109565b602082019050919050565b6000612796601183612c1a565b91506127a182613132565b602082019050919050565b60006127b9601d83612c1a565b91506127c48261315b565b602082019050919050565b60006127dc602a83612c1a565b91506127e782613184565b604082019050919050565b60006127ff600d83612c1a565b915061280a826131d3565b602082019050919050565b61281e81612db8565b82525050565b61282d81612dc2565b82525050565b61283c81612dd2565b82525050565b600061284e828461257b565b915081905092915050565b600060208201905061286e600083018461255d565b92915050565b6000606082019050612889600083018661255d565b612896602083018561255d565b6128a3604083018461256c565b949350505050565b60006060820190506128c0600083018661255d565b6128cd602083018561255d565b6128da6040830184612815565b949350505050565b60006040820190506128f7600083018561255d565b6129046020830184612815565b9392505050565b6000602082019050612920600083018461256c565b92915050565b6000602082019050818103600083015261294081846125ac565b905092915050565b60006020820190508181036000830152612961816125e5565b9050919050565b6000602082019050818103600083015261298181612608565b9050919050565b600060208201905081810360008301526129a18161262b565b9050919050565b600060208201905081810360008301526129c18161264e565b9050919050565b600060208201905081810360008301526129e181612671565b9050919050565b60006020820190508181036000830152612a0181612694565b9050919050565b60006020820190508181036000830152612a21816126b7565b9050919050565b60006020820190508181036000830152612a41816126da565b9050919050565b60006020820190508181036000830152612a61816126fd565b9050919050565b60006020820190508181036000830152612a8181612720565b9050919050565b60006020820190508181036000830152612aa181612743565b9050919050565b60006020820190508181036000830152612ac181612766565b9050919050565b60006020820190508181036000830152612ae181612789565b9050919050565b60006020820190508181036000830152612b01816127ac565b9050919050565b60006020820190508181036000830152612b21816127cf565b9050919050565b60006020820190508181036000830152612b41816127f2565b9050919050565b6000602082019050612b5d6000830184612815565b92915050565b6000606082019050612b786000830186612815565b612b85602083018561255d565b612b926040830184612815565b949350505050565b6000604082019050612baf6000830185612815565b612bbc6020830184612815565b9392505050565b6000602082019050612bd86000830184612824565b92915050565b6000602082019050612bf36000830184612833565b92915050565b600081519050919050565b600081519050919050565b600081905092915050565b600082825260208201905092915050565b6000612c3682612db8565b9150612c4183612db8565b9250827fffffffffffffffffffffffffffffffffffffffffffffffffffffffffffffffff03821115612c7657612c75612e3f565b5b828201905092915050565b6000612c8c82612dc2565b9150612c9783612dc2565b92508263ffffffff03821115612cb057612caf612e3f565b5b828201905092915050565b6000612cc682612db8565b9150612cd183612db8565b925082612ce157612ce0612e6e565b5b828204905092915050565b6000612cf782612db8565b9150612d0283612db8565b9250817fffffffffffffffffffffffffffffffffffffffffffffffffffffffffffffffff0483118215151615612d3b57612d3a612e3f565b5b828202905092915050565b6000612d5182612db8565b9150612d5c83612db8565b925082821015612d6f57612d6e612e3f565b5b828203905092915050565b6000612d8582612d98565b9050919050565b60008115159050919050565b600073ffffffffffffffffffffffffffffffffffffffff82169050919050565b6000819050919050565b600063ffffffff82169050919050565b600060ff82169050919050565b60005b83811015612dfd578082015181840152602081019050612de2565b83811115612e0c576000848401525b50505050565b6000612e1d82612dc2565b915063ffffffff821415612e3457612e33612e3f565b5b600182019050919050565b7f4e487b7100000000000000000000000000000000000000000000000000000000600052601160045260246000fd5b7f4e487b7100000000000000000000000000000000000000000000000000000000600052601260045260246000fd5b6000601f19601f8301169050919050565b7f55736572206973206e6f7420696e2077686974656c697374206f72207761697460008201527f6c69737400000000000000000000000000000000000000000000000000000000602082015250565b7f696e76616c696420616d6f756e74000000000000000000000000000000000000600082015250565b7f426f74682074696d657374616d702063616e6e6f742062652030000000000000600082015250565b7f416464726573733a20696e73756666696369656e742062616c616e636520666f60008201527f722063616c6c0000000000000000000000000000000000000000000000000000602082015250565b7f546f6b656e20616d6f756e742065786365656400000000000000000000000000600082015250565b7f416d6f756e74206578636565647320746f74616c20616d6f756e7420746f207260008201527f6169736500000000000000000000000000000000000000000000000000000000602082015250565b7f4669786564506f696e743a3a6672616374696f6e3a206469766973696f6e206260008201527f79207a65726f0000000000000000000000000000000000000000000000000000602082015250565b7f53616c6520436f6e747261637420697320496e61637469766500000000000000600082015250565b7f55736572206973206e6f742077686974656c6973746564000000000000000000600082015250565b7f70726f6a656374206e6f74206c69766500000000000000000000000000000000600082015250565b7f46756c6c4d6174683a3a6d756c4469763a206f766572666c6f77000000000000600082015250565b7f4669786564506f696e743a3a6672616374696f6e3a206f766572666c6f770000600082015250565b7f70726f6a6563742068617320656e646564000000000000000000000000000000600082015250565b7f416464726573733a2063616c6c20746f206e6f6e2d636f6e7472616374000000600082015250565b7f5361666545524332303a204552433230206f7065726174696f6e20646964206e60008201527f6f74207375636365656400000000000000000000000000000000000000000000602082015250565b7f4f776e657220496e76616c696400000000000000000000000000000000000000600082015250565b61320581612d7a565b811461321057600080fd5b50565b61321c81612d8c565b811461322757600080fd5b50565b61323381612db8565b811461323e57600080fd5b50565b61324a81612dc2565b811461325557600080fd5b5056fea2646970667358221220dff4bd3903b11328ee885425bdbddc5af745b9908c53a75eb0124b72bed6ca2d64736f6c63430008040033",
  "linkReferences": {},
  "deployedLinkReferences": {}
}