{
  "_format": "hh-sol-artifact-1",
  "contractName": "CommunitySaleMigration",
  "sourceName": "contracts/CommunitySaleMigration.sol",
  "abi": [
    {
      "inputs": [
        {
          "internalType": "address",
          "name": "nttAddress_",
          "type": "address"
        }
      ],
      "stateMutability": "nonpayable",
      "type": "constructor"
    },
    {
      "anonymous": false,
      "inputs": [
        {
          "indexed": true,
          "internalType": "address",
          "name": "account",
          "type": "address"
        },
        {
          "indexed": false,
          "internalType": "uint256",
          "name": "amount",
          "type": "uint256"
        }
      ],
      "name": "ManagerAllowanceUpdated",
      "type": "event"
    },
    {
      "inputs": [
        {
          "internalType": "address",
          "name": "account_",
          "type": "address"
        },
        {
          "internalType": "uint256",
          "name": "amount_",
          "type": "uint256"
        }
      ],
      "name": "approveManagerAllowance",
      "outputs": [],
      "stateMutability": "nonpayable",
      "type": "function"
    },
    {
      "inputs": [
        {
          "internalType": "address",
          "name": "account_",
          "type": "address"
        },
        {
          "internalType": "uint256",
          "name": "amount_",
          "type": "uint256"
        }
      ],
      "name": "decreaseManagerAllowance",
      "outputs": [],
      "stateMutability": "nonpayable",
      "type": "function"
    },
    {
      "inputs": [],
      "name": "remainingTokens",
      "outputs": [
        {
          "internalType": "uint256",
          "name": "",
          "type": "uint256"
        }
      ],
      "stateMutability": "view",
      "type": "function"
    },
    {
      "inputs": [
        {
          "internalType": "address",
          "name": "",
          "type": "address"
        }
      ],
      "name": "reserveManagerAllowance",
      "outputs": [
        {
          "internalType": "uint256",
          "name": "",
          "type": "uint256"
        }
      ],
      "stateMutability": "view",
      "type": "function"
    },
    {
      "inputs": [
        {
          "internalType": "address",
          "name": "account_",
          "type": "address"
        },
        {
          "internalType": "uint256",
          "name": "amount_",
          "type": "uint256"
        }
      ],
      "name": "transferNTT",
      "outputs": [],
      "stateMutability": "nonpayable",
      "type": "function"
    }
  ],
  "bytecode": "0x60806040523480156200001157600080fd5b50604051620012e9380380620012e9833981810160405281019062000037919062000123565b600073ffffffffffffffffffffffffffffffffffffffff168173ffffffffffffffffffffffffffffffffffffffff1614156200007257600080fd5b33600360006101000a81548173ffffffffffffffffffffffffffffffffffffffff021916908373ffffffffffffffffffffffffffffffffffffffff16021790555069152d02c7e14af680000060018190555080600260006101000a81548173ffffffffffffffffffffffffffffffffffffffff021916908373ffffffffffffffffffffffffffffffffffffffff160217905550506200019d565b6000815190506200011d8162000183565b92915050565b6000602082840312156200013657600080fd5b600062000146848285016200010c565b91505092915050565b60006200015c8262000163565b9050919050565b600073ffffffffffffffffffffffffffffffffffffffff82169050919050565b6200018e816200014f565b81146200019a57600080fd5b50565b61113c80620001ad6000396000f3fe608060405234801561001057600080fd5b50600436106100575760003560e01c8063a98b77121461005c578063bf5839031461008c578063c00e82ab146100aa578063dd6f6874146100c6578063fd20a39c146100e2575b600080fd5b61007660048036038101906100719190610a77565b6100fe565b6040516100839190610dc4565b60405180910390f35b610094610116565b6040516100a19190610dc4565b60405180910390f35b6100c460048036038101906100bf9190610aa0565b61011c565b005b6100e060048036038101906100db9190610aa0565b6102d0565b005b6100fc60048036038101906100f79190610aa0565b6104cb565b005b60006020528060005260406000206000915090505481565b60015481565b600360009054906101000a900473ffffffffffffffffffffffffffffffffffffffff1673ffffffffffffffffffffffffffffffffffffffff163373ffffffffffffffffffffffffffffffffffffffff16146101ac576040517f08c379a00000000000000000000000000000000000000000000000000000000081526004016101a390610da4565b60405180910390fd5b600073ffffffffffffffffffffffffffffffffffffffff168273ffffffffffffffffffffffffffffffffffffffff1614156101e657600080fd5b60008111610229576040517f08c379a000000000000000000000000000000000000000000000000000000000815260040161022090610d44565b60405180910390fd5b806000808473ffffffffffffffffffffffffffffffffffffffff1673ffffffffffffffffffffffffffffffffffffffff16815260200190815260200160002060008282546102779190610e11565b925050819055508173ffffffffffffffffffffffffffffffffffffffff167ff38954ad46b5908feef93e64a850c873ccd8838a9ddb876bd2b2a2c9ccd96865826040516102c49190610dc4565b60405180910390a25050565b60008060003373ffffffffffffffffffffffffffffffffffffffff1673ffffffffffffffffffffffffffffffffffffffff1681526020019081526020016000205411610351576040517f08c379a000000000000000000000000000000000000000000000000000000000815260040161034890610ce4565b60405180910390fd5b600073ffffffffffffffffffffffffffffffffffffffff168273ffffffffffffffffffffffffffffffffffffffff16141561038b57600080fd5b600081116103ce576040517f08c379a00000000000000000000000000000000000000000000000000000000081526004016103c590610d44565b60405180910390fd5b61041f816000803373ffffffffffffffffffffffffffffffffffffffff1673ffffffffffffffffffffffffffffffffffffffff1681526020019081526020016000205461071290919063ffffffff16565b6000803373ffffffffffffffffffffffffffffffffffffffff1673ffffffffffffffffffffffffffffffffffffffff1681526020019081526020016000208190555080600160008282546104739190610e67565b925050819055506104c78282600260009054906101000a900473ffffffffffffffffffffffffffffffffffffffff1673ffffffffffffffffffffffffffffffffffffffff166107359092919063ffffffff16565b5050565b600360009054906101000a900473ffffffffffffffffffffffffffffffffffffffff1673ffffffffffffffffffffffffffffffffffffffff163373ffffffffffffffffffffffffffffffffffffffff161461055b576040517f08c379a000000000000000000000000000000000000000000000000000000000815260040161055290610da4565b60405180910390fd5b600073ffffffffffffffffffffffffffffffffffffffff168273ffffffffffffffffffffffffffffffffffffffff16141561059557600080fd5b600081116105d8576040517f08c379a00000000000000000000000000000000000000000000000000000000081526004016105cf90610d44565b60405180910390fd5b600061062b826000808673ffffffffffffffffffffffffffffffffffffffff1673ffffffffffffffffffffffffffffffffffffffff1681526020019081526020016000205461071290919063ffffffff16565b1161066b576040517f08c379a000000000000000000000000000000000000000000000000000000000815260040161066290610d04565b60405180910390fd5b806000808473ffffffffffffffffffffffffffffffffffffffff1673ffffffffffffffffffffffffffffffffffffffff16815260200190815260200160002060008282546106b99190610e67565b925050819055508173ffffffffffffffffffffffffffffffffffffffff167ff38954ad46b5908feef93e64a850c873ccd8838a9ddb876bd2b2a2c9ccd96865826040516107069190610dc4565b60405180910390a25050565b60008282846107219190610e67565b915081111561072f57600080fd5b92915050565b6107b68363a9059cbb60e01b8484604051602401610754929190610c99565b604051602081830303815290604052907bffffffffffffffffffffffffffffffffffffffffffffffffffffffff19166020820180517bffffffffffffffffffffffffffffffffffffffffffffffffffffffff83818316178352505050506107bb565b505050565b600061081d826040518060400160405280602081526020017f5361666545524332303a206c6f772d6c6576656c2063616c6c206661696c65648152508573ffffffffffffffffffffffffffffffffffffffff166108829092919063ffffffff16565b905060008151111561087d578080602001905181019061083d9190610adc565b61087c576040517f08c379a000000000000000000000000000000000000000000000000000000000815260040161087390610d84565b60405180910390fd5b5b505050565b6060610891848460008561089a565b90509392505050565b6060824710156108df576040517f08c379a00000000000000000000000000000000000000000000000000000000081526004016108d690610d24565b60405180910390fd5b6108e8856109ae565b610927576040517f08c379a000000000000000000000000000000000000000000000000000000000815260040161091e90610d64565b60405180910390fd5b6000808673ffffffffffffffffffffffffffffffffffffffff1685876040516109509190610c82565b60006040518083038185875af1925050503d806000811461098d576040519150601f19603f3d011682016040523d82523d6000602084013e610992565b606091505b50915091506109a28282866109d1565b92505050949350505050565b6000808273ffffffffffffffffffffffffffffffffffffffff163b119050919050565b606083156109e157829050610a31565b6000835111156109f45782518084602001fd5b816040517f08c379a0000000000000000000000000000000000000000000000000000000008152600401610a289190610cc2565b60405180910390fd5b9392505050565b600081359050610a47816110c1565b92915050565b600081519050610a5c816110d8565b92915050565b600081359050610a71816110ef565b92915050565b600060208284031215610a8957600080fd5b6000610a9784828501610a38565b91505092915050565b60008060408385031215610ab357600080fd5b6000610ac185828601610a38565b9250506020610ad285828601610a62565b9150509250929050565b600060208284031215610aee57600080fd5b6000610afc84828501610a4d565b91505092915050565b610b0e81610e9b565b82525050565b6000610b1f82610ddf565b610b298185610df5565b9350610b39818560208601610ee3565b80840191505092915050565b6000610b5082610dea565b610b5a8185610e00565b9350610b6a818560208601610ee3565b610b7381610f45565b840191505092915050565b6000610b8b601783610e00565b9150610b9682610f56565b602082019050919050565b6000610bae601883610e00565b9150610bb982610f7f565b602082019050919050565b6000610bd1602683610e00565b9150610bdc82610fa8565b604082019050919050565b6000610bf4601583610e00565b9150610bff82610ff7565b602082019050919050565b6000610c17601d83610e00565b9150610c2282611020565b602082019050919050565b6000610c3a602a83610e00565b9150610c4582611049565b604082019050919050565b6000610c5d601683610e00565b9150610c6882611098565b602082019050919050565b610c7c81610ed9565b82525050565b6000610c8e8284610b14565b915081905092915050565b6000604082019050610cae6000830185610b05565b610cbb6020830184610c73565b9392505050565b60006020820190508181036000830152610cdc8184610b45565b905092915050565b60006020820190508181036000830152610cfd81610b7e565b9050919050565b60006020820190508181036000830152610d1d81610ba1565b9050919050565b60006020820190508181036000830152610d3d81610bc4565b9050919050565b60006020820190508181036000830152610d5d81610be7565b9050919050565b60006020820190508181036000830152610d7d81610c0a565b9050919050565b60006020820190508181036000830152610d9d81610c2d565b9050919050565b60006020820190508181036000830152610dbd81610c50565b9050919050565b6000602082019050610dd96000830184610c73565b92915050565b600081519050919050565b600081519050919050565b600081905092915050565b600082825260208201905092915050565b6000610e1c82610ed9565b9150610e2783610ed9565b9250827fffffffffffffffffffffffffffffffffffffffffffffffffffffffffffffffff03821115610e5c57610e5b610f16565b5b828201905092915050565b6000610e7282610ed9565b9150610e7d83610ed9565b925082821015610e9057610e8f610f16565b5b828203905092915050565b6000610ea682610eb9565b9050919050565b60008115159050919050565b600073ffffffffffffffffffffffffffffffffffffffff82169050919050565b6000819050919050565b60005b83811015610f01578082015181840152602081019050610ee6565b83811115610f10576000848401525b50505050565b7f4e487b7100000000000000000000000000000000000000000000000000000000600052601160045260246000fd5b6000601f19601f8301169050919050565b7f4e6f742061206d61726b6574696e67206d616e61676572000000000000000000600082015250565b7f416d6f756e74204754207468616e20616c6c6f77616e63650000000000000000600082015250565b7f416464726573733a20696e73756666696369656e742062616c616e636520666f60008201527f722063616c6c0000000000000000000000000000000000000000000000000000602082015250565b7f616d6f756e742073686f756c6420626520475420300000000000000000000000600082015250565b7f416464726573733a2063616c6c20746f206e6f6e2d636f6e7472616374000000600082015250565b7f5361666545524332303a204552433230206f7065726174696f6e20646964206e60008201527f6f74207375636365656400000000000000000000000000000000000000000000602082015250565b7f43616c6c6572206973206e6f7420616e206f776e657200000000000000000000600082015250565b6110ca81610e9b565b81146110d557600080fd5b50565b6110e181610ead565b81146110ec57600080fd5b50565b6110f881610ed9565b811461110357600080fd5b5056fea264697066735822122087134e133515305a1cac90019ebad43d9bdc53282b41f2047b0cdadb6afab95b64736f6c63430008040033",
  "linkReferences": {},
  "deployedLinkReferences": {}
}