{
  "_format": "hh-sol-artifact-1",
  "contractName": "MarketingManagement",
  "sourceName": "contracts/MarketingManagement.sol",
  "abi": [
    {
      "inputs": [
        {
          "internalType": "address",
          "name": "nttAddress_",
          "type": "address"
        }
      ],
      "stateMutability": "nonpayable",
      "type": "constructor"
    },
    {
      "anonymous": false,
      "inputs": [
        {
          "indexed": true,
          "internalType": "address",
          "name": "account",
          "type": "address"
        },
        {
          "indexed": false,
          "internalType": "uint256",
          "name": "amount",
          "type": "uint256"
        }
      ],
      "name": "ManagerAllowanceUpdated",
      "type": "event"
    },
    {
      "inputs": [
        {
          "internalType": "address",
          "name": "account_",
          "type": "address"
        },
        {
          "internalType": "uint256",
          "name": "amount_",
          "type": "uint256"
        }
      ],
      "name": "approveManagerAllowance",
      "outputs": [],
      "stateMutability": "nonpayable",
      "type": "function"
    },
    {
      "inputs": [
        {
          "internalType": "address",
          "name": "account_",
          "type": "address"
        },
        {
          "internalType": "uint256",
          "name": "amount_",
          "type": "uint256"
        }
      ],
      "name": "decreaseManagerAllowance",
      "outputs": [],
      "stateMutability": "nonpayable",
      "type": "function"
    },
    {
      "inputs": [
        {
          "internalType": "address",
          "name": "",
          "type": "address"
        }
      ],
      "name": "managerAllowance",
      "outputs": [
        {
          "internalType": "uint256",
          "name": "",
          "type": "uint256"
        }
      ],
      "stateMutability": "view",
      "type": "function"
    },
    {
      "inputs": [],
      "name": "totalRemainingMarketingTokens",
      "outputs": [
        {
          "internalType": "uint256",
          "name": "",
          "type": "uint256"
        }
      ],
      "stateMutability": "view",
      "type": "function"
    },
    {
      "inputs": [
        {
          "internalType": "address",
          "name": "account_",
          "type": "address"
        },
        {
          "internalType": "uint256",
          "name": "amount_",
          "type": "uint256"
        }
      ],
      "name": "transferNTT",
      "outputs": [],
      "stateMutability": "nonpayable",
      "type": "function"
    }
  ],
  "bytecode": "0x60806040523480156200001157600080fd5b50604051620011ea380380620011ea833981810160405281019062000037919062000123565b600073ffffffffffffffffffffffffffffffffffffffff168173ffffffffffffffffffffffffffffffffffffffff1614156200007257600080fd5b33600360006101000a81548173ffffffffffffffffffffffffffffffffffffffff021916908373ffffffffffffffffffffffffffffffffffffffff1602179055506969e10de76676d080000060018190555080600260006101000a81548173ffffffffffffffffffffffffffffffffffffffff021916908373ffffffffffffffffffffffffffffffffffffffff160217905550506200019d565b6000815190506200011d8162000183565b92915050565b6000602082840312156200013657600080fd5b600062000146848285016200010c565b91505092915050565b60006200015c8262000163565b9050919050565b600073ffffffffffffffffffffffffffffffffffffffff82169050919050565b6200018e816200014f565b81146200019a57600080fd5b50565b61103d80620001ad6000396000f3fe608060405234801561001057600080fd5b50600436106100575760003560e01c80632cef57261461005c578063c00e82ab1461007a578063cab6219914610096578063dd6f6874146100c6578063fd20a39c146100e2575b600080fd5b6100646100fe565b6040516100719190610cee565b60405180910390f35b610094600480360381019061008f9190610a0d565b610104565b005b6100b060048036038101906100ab91906109e4565b6102b8565b6040516100bd9190610cee565b60405180910390f35b6100e060048036038101906100db9190610a0d565b6102d0565b005b6100fc60048036038101906100f79190610a0d565b6104cb565b005b60015481565b600360009054906101000a900473ffffffffffffffffffffffffffffffffffffffff1673ffffffffffffffffffffffffffffffffffffffff163373ffffffffffffffffffffffffffffffffffffffff1614610194576040517f08c379a000000000000000000000000000000000000000000000000000000000815260040161018b90610cce565b60405180910390fd5b600073ffffffffffffffffffffffffffffffffffffffff168273ffffffffffffffffffffffffffffffffffffffff1614156101ce57600080fd5b60008111610211576040517f08c379a000000000000000000000000000000000000000000000000000000000815260040161020890610c6e565b60405180910390fd5b806000808473ffffffffffffffffffffffffffffffffffffffff1673ffffffffffffffffffffffffffffffffffffffff168152602001908152602001600020600082825461025f9190610d3b565b925050819055508173ffffffffffffffffffffffffffffffffffffffff167ff38954ad46b5908feef93e64a850c873ccd8838a9ddb876bd2b2a2c9ccd96865826040516102ac9190610cee565b60405180910390a25050565b60006020528060005260406000206000915090505481565b60008060003373ffffffffffffffffffffffffffffffffffffffff1673ffffffffffffffffffffffffffffffffffffffff1681526020019081526020016000205411610351576040517f08c379a000000000000000000000000000000000000000000000000000000000815260040161034890610c2e565b60405180910390fd5b600073ffffffffffffffffffffffffffffffffffffffff168273ffffffffffffffffffffffffffffffffffffffff16141561038b57600080fd5b600081116103ce576040517f08c379a00000000000000000000000000000000000000000000000000000000081526004016103c590610c6e565b60405180910390fd5b61041f816000803373ffffffffffffffffffffffffffffffffffffffff1673ffffffffffffffffffffffffffffffffffffffff1681526020019081526020016000205461067f90919063ffffffff16565b6000803373ffffffffffffffffffffffffffffffffffffffff1673ffffffffffffffffffffffffffffffffffffffff1681526020019081526020016000208190555080600160008282546104739190610d91565b925050819055506104c78282600260009054906101000a900473ffffffffffffffffffffffffffffffffffffffff1673ffffffffffffffffffffffffffffffffffffffff166106a29092919063ffffffff16565b5050565b600360009054906101000a900473ffffffffffffffffffffffffffffffffffffffff1673ffffffffffffffffffffffffffffffffffffffff163373ffffffffffffffffffffffffffffffffffffffff161461055b576040517f08c379a000000000000000000000000000000000000000000000000000000000815260040161055290610cce565b60405180910390fd5b600073ffffffffffffffffffffffffffffffffffffffff168273ffffffffffffffffffffffffffffffffffffffff16141561059557600080fd5b600081116105d8576040517f08c379a00000000000000000000000000000000000000000000000000000000081526004016105cf90610c6e565b60405180910390fd5b806000808473ffffffffffffffffffffffffffffffffffffffff1673ffffffffffffffffffffffffffffffffffffffff16815260200190815260200160002060008282546106269190610d91565b925050819055508173ffffffffffffffffffffffffffffffffffffffff167ff38954ad46b5908feef93e64a850c873ccd8838a9ddb876bd2b2a2c9ccd96865826040516106739190610cee565b60405180910390a25050565b600082828461068e9190610d91565b915081111561069c57600080fd5b92915050565b6107238363a9059cbb60e01b84846040516024016106c1929190610be3565b604051602081830303815290604052907bffffffffffffffffffffffffffffffffffffffffffffffffffffffff19166020820180517bffffffffffffffffffffffffffffffffffffffffffffffffffffffff8381831617835250505050610728565b505050565b600061078a826040518060400160405280602081526020017f5361666545524332303a206c6f772d6c6576656c2063616c6c206661696c65648152508573ffffffffffffffffffffffffffffffffffffffff166107ef9092919063ffffffff16565b90506000815111156107ea57808060200190518101906107aa9190610a49565b6107e9576040517f08c379a00000000000000000000000000000000000000000000000000000000081526004016107e090610cae565b60405180910390fd5b5b505050565b60606107fe8484600085610807565b90509392505050565b60608247101561084c576040517f08c379a000000000000000000000000000000000000000000000000000000000815260040161084390610c4e565b60405180910390fd5b6108558561091b565b610894576040517f08c379a000000000000000000000000000000000000000000000000000000000815260040161088b90610c8e565b60405180910390fd5b6000808673ffffffffffffffffffffffffffffffffffffffff1685876040516108bd9190610bcc565b60006040518083038185875af1925050503d80600081146108fa576040519150601f19603f3d011682016040523d82523d6000602084013e6108ff565b606091505b509150915061090f82828661093e565b92505050949350505050565b6000808273ffffffffffffffffffffffffffffffffffffffff163b119050919050565b6060831561094e5782905061099e565b6000835111156109615782518084602001fd5b816040517f08c379a00000000000000000000000000000000000000000000000000000000081526004016109959190610c0c565b60405180910390fd5b9392505050565b6000813590506109b481610fc2565b92915050565b6000815190506109c981610fd9565b92915050565b6000813590506109de81610ff0565b92915050565b6000602082840312156109f657600080fd5b6000610a04848285016109a5565b91505092915050565b60008060408385031215610a2057600080fd5b6000610a2e858286016109a5565b9250506020610a3f858286016109cf565b9150509250929050565b600060208284031215610a5b57600080fd5b6000610a69848285016109ba565b91505092915050565b610a7b81610dc5565b82525050565b6000610a8c82610d09565b610a968185610d1f565b9350610aa6818560208601610e0d565b80840191505092915050565b6000610abd82610d14565b610ac78185610d2a565b9350610ad7818560208601610e0d565b610ae081610e6f565b840191505092915050565b6000610af8601783610d2a565b9150610b0382610e80565b602082019050919050565b6000610b1b602683610d2a565b9150610b2682610ea9565b604082019050919050565b6000610b3e601583610d2a565b9150610b4982610ef8565b602082019050919050565b6000610b61601d83610d2a565b9150610b6c82610f21565b602082019050919050565b6000610b84602a83610d2a565b9150610b8f82610f4a565b604082019050919050565b6000610ba7601683610d2a565b9150610bb282610f99565b602082019050919050565b610bc681610e03565b82525050565b6000610bd88284610a81565b915081905092915050565b6000604082019050610bf86000830185610a72565b610c056020830184610bbd565b9392505050565b60006020820190508181036000830152610c268184610ab2565b905092915050565b60006020820190508181036000830152610c4781610aeb565b9050919050565b60006020820190508181036000830152610c6781610b0e565b9050919050565b60006020820190508181036000830152610c8781610b31565b9050919050565b60006020820190508181036000830152610ca781610b54565b9050919050565b60006020820190508181036000830152610cc781610b77565b9050919050565b60006020820190508181036000830152610ce781610b9a565b9050919050565b6000602082019050610d036000830184610bbd565b92915050565b600081519050919050565b600081519050919050565b600081905092915050565b600082825260208201905092915050565b6000610d4682610e03565b9150610d5183610e03565b9250827fffffffffffffffffffffffffffffffffffffffffffffffffffffffffffffffff03821115610d8657610d85610e40565b5b828201905092915050565b6000610d9c82610e03565b9150610da783610e03565b925082821015610dba57610db9610e40565b5b828203905092915050565b6000610dd082610de3565b9050919050565b60008115159050919050565b600073ffffffffffffffffffffffffffffffffffffffff82169050919050565b6000819050919050565b60005b83811015610e2b578082015181840152602081019050610e10565b83811115610e3a576000848401525b50505050565b7f4e487b7100000000000000000000000000000000000000000000000000000000600052601160045260246000fd5b6000601f19601f8301169050919050565b7f4e6f742061206d61726b6574696e67206d616e61676572000000000000000000600082015250565b7f416464726573733a20696e73756666696369656e742062616c616e636520666f60008201527f722063616c6c0000000000000000000000000000000000000000000000000000602082015250565b7f616d6f756e742073686f756c6420626520475420300000000000000000000000600082015250565b7f416464726573733a2063616c6c20746f206e6f6e2d636f6e7472616374000000600082015250565b7f5361666545524332303a204552433230206f7065726174696f6e20646964206e60008201527f6f74207375636365656400000000000000000000000000000000000000000000602082015250565b7f43616c6c6572206973206e6f7420616e206f776e657200000000000000000000600082015250565b610fcb81610dc5565b8114610fd657600080fd5b50565b610fe281610dd7565b8114610fed57600080fd5b50565b610ff981610e03565b811461100457600080fd5b5056fea26469706673582212205d695321e374adb972755c91ac8bd0c37fabfe9e39b669aa24b2261919fd563664736f6c63430008040033",
  "linkReferences": {},
  "deployedLinkReferences": {}
}