{
  "_format": "hh-sol-artifact-1",
  "contractName": "NTT",
  "sourceName": "contracts/NTT.sol",
  "abi": [
    {
      "inputs": [],
      "stateMutability": "nonpayable",
      "type": "constructor"
    },
    {
      "anonymous": false,
      "inputs": [
        {
          "indexed": true,
          "internalType": "address",
          "name": "owner",
          "type": "address"
        },
        {
          "indexed": true,
          "internalType": "address",
          "name": "spender",
          "type": "address"
        },
        {
          "indexed": false,
          "internalType": "uint256",
          "name": "value",
          "type": "uint256"
        }
      ],
      "name": "Approval",
      "type": "event"
    },
    {
      "anonymous": false,
      "inputs": [
        {
          "indexed": true,
          "internalType": "address",
          "name": "previousOwner",
          "type": "address"
        },
        {
          "indexed": true,
          "internalType": "address",
          "name": "newOwner",
          "type": "address"
        }
      ],
      "name": "OwnershipTransferred",
      "type": "event"
    },
    {
      "anonymous": false,
      "inputs": [
        {
          "indexed": true,
          "internalType": "address",
          "name": "account",
          "type": "address"
        },
        {
          "indexed": false,
          "internalType": "uint256",
          "name": "amount",
          "type": "uint256"
        }
      ],
      "name": "Redeemed",
      "type": "event"
    },
    {
      "anonymous": false,
      "inputs": [
        {
          "indexed": false,
          "internalType": "bool",
          "name": "redeemableStatus",
          "type": "bool"
        }
      ],
      "name": "RedeemedStatus",
      "type": "event"
    },
    {
      "anonymous": false,
      "inputs": [
        {
          "indexed": true,
          "internalType": "address",
          "name": "from",
          "type": "address"
        },
        {
          "indexed": true,
          "internalType": "address",
          "name": "to",
          "type": "address"
        },
        {
          "indexed": false,
          "internalType": "uint256",
          "name": "value",
          "type": "uint256"
        }
      ],
      "name": "Transfer",
      "type": "event"
    },
    {
      "inputs": [
        {
          "internalType": "address",
          "name": "owner",
          "type": "address"
        },
        {
          "internalType": "address",
          "name": "spender",
          "type": "address"
        }
      ],
      "name": "allowance",
      "outputs": [
        {
          "internalType": "uint256",
          "name": "",
          "type": "uint256"
        }
      ],
      "stateMutability": "view",
      "type": "function"
    },
    {
      "inputs": [
        {
          "internalType": "address",
          "name": "spender",
          "type": "address"
        },
        {
          "internalType": "uint256",
          "name": "amount",
          "type": "uint256"
        }
      ],
      "name": "approve",
      "outputs": [
        {
          "internalType": "bool",
          "name": "",
          "type": "bool"
        }
      ],
      "stateMutability": "nonpayable",
      "type": "function"
    },
    {
      "inputs": [
        {
          "internalType": "address",
          "name": "account_",
          "type": "address"
        }
      ],
      "name": "approveAddressForTransfer",
      "outputs": [],
      "stateMutability": "nonpayable",
      "type": "function"
    },
    {
      "inputs": [
        {
          "internalType": "address",
          "name": "account",
          "type": "address"
        }
      ],
      "name": "balanceOf",
      "outputs": [
        {
          "internalType": "uint256",
          "name": "",
          "type": "uint256"
        }
      ],
      "stateMutability": "view",
      "type": "function"
    },
    {
      "inputs": [
        {
          "internalType": "uint256",
          "name": "amount_",
          "type": "uint256"
        }
      ],
      "name": "burn",
      "outputs": [],
      "stateMutability": "nonpayable",
      "type": "function"
    },
    {
      "inputs": [],
      "name": "decimals",
      "outputs": [
        {
          "internalType": "uint8",
          "name": "",
          "type": "uint8"
        }
      ],
      "stateMutability": "view",
      "type": "function"
    },
    {
      "inputs": [
        {
          "internalType": "address",
          "name": "spender",
          "type": "address"
        },
        {
          "internalType": "uint256",
          "name": "subtractedValue",
          "type": "uint256"
        }
      ],
      "name": "decreaseAllowance",
      "outputs": [
        {
          "internalType": "bool",
          "name": "",
          "type": "bool"
        }
      ],
      "stateMutability": "nonpayable",
      "type": "function"
    },
    {
      "inputs": [
        {
          "internalType": "address",
          "name": "spender",
          "type": "address"
        },
        {
          "internalType": "uint256",
          "name": "addedValue",
          "type": "uint256"
        }
      ],
      "name": "increaseAllowance",
      "outputs": [
        {
          "internalType": "bool",
          "name": "",
          "type": "bool"
        }
      ],
      "stateMutability": "nonpayable",
      "type": "function"
    },
    {
      "inputs": [
        {
          "internalType": "address",
          "name": "account",
          "type": "address"
        },
        {
          "internalType": "uint256",
          "name": "amount",
          "type": "uint256"
        }
      ],
      "name": "mint",
      "outputs": [],
      "stateMutability": "nonpayable",
      "type": "function"
    },
    {
      "inputs": [],
      "name": "name",
      "outputs": [
        {
          "internalType": "string",
          "name": "",
          "type": "string"
        }
      ],
      "stateMutability": "view",
      "type": "function"
    },
    {
      "inputs": [],
      "name": "owner",
      "outputs": [
        {
          "internalType": "address",
          "name": "",
          "type": "address"
        }
      ],
      "stateMutability": "view",
      "type": "function"
    },
    {
      "inputs": [
        {
          "internalType": "uint256",
          "name": "amount_",
          "type": "uint256"
        }
      ],
      "name": "redeemORFI",
      "outputs": [],
      "stateMutability": "nonpayable",
      "type": "function"
    },
    {
      "inputs": [],
      "name": "redeemable",
      "outputs": [
        {
          "internalType": "bool",
          "name": "",
          "type": "bool"
        }
      ],
      "stateMutability": "view",
      "type": "function"
    },
    {
      "inputs": [
        {
          "internalType": "address",
          "name": "account_",
          "type": "address"
        }
      ],
      "name": "removeAddressForTransfer",
      "outputs": [],
      "stateMutability": "nonpayable",
      "type": "function"
    },
    {
      "inputs": [],
      "name": "renounceOwnership",
      "outputs": [],
      "stateMutability": "nonpayable",
      "type": "function"
    },
    {
      "inputs": [
        {
          "internalType": "address",
          "name": "orfiAddress_",
          "type": "address"
        }
      ],
      "name": "setOrfiAddress",
      "outputs": [],
      "stateMutability": "nonpayable",
      "type": "function"
    },
    {
      "inputs": [],
      "name": "symbol",
      "outputs": [
        {
          "internalType": "string",
          "name": "",
          "type": "string"
        }
      ],
      "stateMutability": "view",
      "type": "function"
    },
    {
      "inputs": [],
      "name": "toggleRedeemFlag",
      "outputs": [],
      "stateMutability": "nonpayable",
      "type": "function"
    },
    {
      "inputs": [],
      "name": "totalNTTMinted",
      "outputs": [
        {
          "internalType": "uint256",
          "name": "",
          "type": "uint256"
        }
      ],
      "stateMutability": "view",
      "type": "function"
    },
    {
      "inputs": [],
      "name": "totalNTTSupply",
      "outputs": [
        {
          "internalType": "uint256",
          "name": "",
          "type": "uint256"
        }
      ],
      "stateMutability": "view",
      "type": "function"
    },
    {
      "inputs": [],
      "name": "totalSupply",
      "outputs": [
        {
          "internalType": "uint256",
          "name": "",
          "type": "uint256"
        }
      ],
      "stateMutability": "view",
      "type": "function"
    },
    {
      "inputs": [
        {
          "internalType": "address",
          "name": "to",
          "type": "address"
        },
        {
          "internalType": "uint256",
          "name": "amount",
          "type": "uint256"
        }
      ],
      "name": "transfer",
      "outputs": [
        {
          "internalType": "bool",
          "name": "",
          "type": "bool"
        }
      ],
      "stateMutability": "nonpayable",
      "type": "function"
    },
    {
      "inputs": [
        {
          "internalType": "address",
          "name": "",
          "type": "address"
        }
      ],
      "name": "transferApprovedAddress",
      "outputs": [
        {
          "internalType": "bool",
          "name": "",
          "type": "bool"
        }
      ],
      "stateMutability": "view",
      "type": "function"
    },
    {
      "inputs": [
        {
          "internalType": "address",
          "name": "from",
          "type": "address"
        },
        {
          "internalType": "address",
          "name": "to",
          "type": "address"
        },
        {
          "internalType": "uint256",
          "name": "amount",
          "type": "uint256"
        }
      ],
      "name": "transferFrom",
      "outputs": [
        {
          "internalType": "bool",
          "name": "",
          "type": "bool"
        }
      ],
      "stateMutability": "nonpayable",
      "type": "function"
    },
    {
      "inputs": [
        {
          "internalType": "address",
          "name": "newOwner",
          "type": "address"
        }
      ],
      "name": "transferOwnership",
      "outputs": [],
      "stateMutability": "nonpayable",
      "type": "function"
    }
  ],
  "bytecode": "0x60806040523480156200001157600080fd5b506040518060400160405280600a81526020017f4f7261636c65204e5454000000000000000000000000000000000000000000008152506040518060400160405280600581526020017f6e4f5246490000000000000000000000000000000000000000000000000000008152506200009e620000926200016460201b60201c565b6200016c60201b60201c565b8160049080519060200190620000b692919062000230565b508060059080519060200190620000cf92919062000230565b5050506000600660006101000a81548160ff0219169083151502179055506001600860003373ffffffffffffffffffffffffffffffffffffffff1673ffffffffffffffffffffffffffffffffffffffff16815260200190815260200160002060006101000a81548160ff02191690831515021790555069be951906eba2aa8000006009819055506000600a8190555062000345565b600033905090565b60008060009054906101000a900473ffffffffffffffffffffffffffffffffffffffff169050816000806101000a81548173ffffffffffffffffffffffffffffffffffffffff021916908373ffffffffffffffffffffffffffffffffffffffff1602179055508173ffffffffffffffffffffffffffffffffffffffff168173ffffffffffffffffffffffffffffffffffffffff167f8be0079c531659141344cd1fd0a4f28419497f9722a3daafe3b4186f6b6457e060405160405180910390a35050565b8280546200023e90620002e0565b90600052602060002090601f016020900481019282620002625760008555620002ae565b82601f106200027d57805160ff1916838001178555620002ae565b82800160010185558215620002ae579182015b82811115620002ad57825182559160200191906001019062000290565b5b509050620002bd9190620002c1565b5090565b5b80821115620002dc576000816000905550600101620002c2565b5090565b60006002820490506001821680620002f957607f821691505b6020821081141562000310576200030f62000316565b5b50919050565b7f4e487b7100000000000000000000000000000000000000000000000000000000600052602260045260246000fd5b6127e580620003556000396000f3fe608060405234801561001057600080fd5b50600436106101735760003560e01c806370a08231116100de5780639751383c11610097578063b9a4b67b11610071578063b9a4b67b1461043c578063bab2858f14610458578063dd62ed3e14610474578063f2fde38b146104a457610173565b80639751383c146103c0578063a457c2d7146103dc578063a9059cbb1461040c57610173565b806370a0823114610310578063715018a61461034057806382f0e1101461034a57806388820db8146103545780638da5cb5b1461038457806395d89b41146103a257610173565b8063313ce56711610130578063313ce56714610250578063395093511461026e57806340c10f191461029e57806342966c68146102ba5780635dade9ce146102d657806364aa4724146102f457610173565b806306fdde0314610178578063095ea7b31461019657806318160ddd146101c657806323b872dd146101e4578063270e43f1146102145780632d7ecd1114610232575b600080fd5b6101806104c0565b60405161018d9190611f80565b60405180910390f35b6101b060048036038101906101ab9190611c11565b610552565b6040516101bd9190611f65565b60405180910390f35b6101ce610575565b6040516101db9190612182565b60405180910390f35b6101fe60048036038101906101f99190611bc2565b61057f565b60405161020b9190611f65565b60405180910390f35b61021c6105ae565b6040516102299190612182565b60405180910390f35b61023a6105b4565b6040516102479190611f65565b60405180910390f35b6102586105c7565b604051610265919061219d565b60405180910390f35b61028860048036038101906102839190611c11565b6105d0565b6040516102959190611f65565b60405180910390f35b6102b860048036038101906102b39190611c11565b61067a565b005b6102d460048036038101906102cf9190611c76565b61076f565b005b6102de61077c565b6040516102eb9190612182565b60405180910390f35b61030e60048036038101906103099190611c76565b610782565b005b61032a60048036038101906103259190611b5d565b6108f5565b6040516103379190612182565b60405180910390f35b61034861093e565b005b6103526109c6565b005b61036e60048036038101906103699190611b5d565b610ab4565b60405161037b9190611f65565b60405180910390f35b61038c610ad4565b6040516103999190611f21565b60405180910390f35b6103aa610afd565b6040516103b79190611f80565b60405180910390f35b6103da60048036038101906103d59190611b5d565b610b8f565b005b6103f660048036038101906103f19190611c11565b610ca0565b6040516104039190611f65565b60405180910390f35b61042660048036038101906104219190611c11565b610d8a565b6040516104339190611f65565b60405180910390f35b61045660048036038101906104519190611b5d565b610dad565b005b610472600480360381019061046d9190611b5d565b610ebe565b005b61048e60048036038101906104899190611b86565b610fb8565b60405161049b9190612182565b60405180910390f35b6104be60048036038101906104b99190611b5d565b61103f565b005b6060600480546104cf906122e6565b80601f01602080910402602001604051908101604052809291908181526020018280546104fb906122e6565b80156105485780601f1061051d57610100808354040283529160200191610548565b820191906000526020600020905b81548152906001019060200180831161052b57829003601f168201915b5050505050905090565b60008061055d611137565b905061056a81858561113f565b600191505092915050565b6000600354905090565b60008061058a611137565b905061059785828561130a565b6105a2858585611396565b60019150509392505050565b60095481565b600660009054906101000a900460ff1681565b60006012905090565b6000806105db611137565b905061066f818585600260008673ffffffffffffffffffffffffffffffffffffffff1673ffffffffffffffffffffffffffffffffffffffff16815260200190815260200160002060008973ffffffffffffffffffffffffffffffffffffffff1673ffffffffffffffffffffffffffffffffffffffff1681526020019081526020016000205461066a91906121d4565b61113f565b600191505092915050565b610682611137565b73ffffffffffffffffffffffffffffffffffffffff166106a0610ad4565b73ffffffffffffffffffffffffffffffffffffffff16146106f6576040517f08c379a00000000000000000000000000000000000000000000000000000000081526004016106ed90612082565b60405180910390fd5b60095481600a5461070791906121d4565b1115610748576040517f08c379a000000000000000000000000000000000000000000000000000000000815260040161073f90612122565b60405180910390fd5b80600a600082825461075a91906121d4565b9250508190555061076b828261161a565b5050565b610779338261177b565b50565b600a5481565b600660009054906101000a900460ff166107d1576040517f08c379a00000000000000000000000000000000000000000000000000000000081526004016107c890612042565b60405180910390fd5b6107db338261177b565b80600760008282546107ed91906121d4565b925050819055503373ffffffffffffffffffffffffffffffffffffffff167f4896181ff8f4543cc00db9fe9b6fb7e6f032b7eb772c72ab1ec1b4d2e03b93698260405161083a9190612182565b60405180910390a2600660019054906101000a900473ffffffffffffffffffffffffffffffffffffffff1673ffffffffffffffffffffffffffffffffffffffff1663a9059cbb33836040518363ffffffff1660e01b815260040161089f929190611f3c565b602060405180830381600087803b1580156108b957600080fd5b505af11580156108cd573d6000803e3d6000fd5b505050506040513d601f19601f820116820180604052508101906108f19190611c4d565b5050565b6000600160008373ffffffffffffffffffffffffffffffffffffffff1673ffffffffffffffffffffffffffffffffffffffff168152602001908152602001600020549050919050565b610946611137565b73ffffffffffffffffffffffffffffffffffffffff16610964610ad4565b73ffffffffffffffffffffffffffffffffffffffff16146109ba576040517f08c379a00000000000000000000000000000000000000000000000000000000081526004016109b190612082565b60405180910390fd5b6109c46000611954565b565b6109ce611137565b73ffffffffffffffffffffffffffffffffffffffff166109ec610ad4565b73ffffffffffffffffffffffffffffffffffffffff1614610a42576040517f08c379a0000000000000000000000000000000000000000000000000000000008152600401610a3990612082565b60405180910390fd5b600660009054906101000a900460ff1615600660006101000a81548160ff0219169083151502179055507f9fbb1b3e30c9f82432c5340967186949474974b31c976512014740a98eb28091600660009054906101000a900460ff16604051610aaa9190611f65565b60405180910390a1565b60086020528060005260406000206000915054906101000a900460ff1681565b60008060009054906101000a900473ffffffffffffffffffffffffffffffffffffffff16905090565b606060058054610b0c906122e6565b80601f0160208091040260200160405190810160405280929190818152602001828054610b38906122e6565b8015610b855780601f10610b5a57610100808354040283529160200191610b85565b820191906000526020600020905b815481529060010190602001808311610b6857829003601f168201915b5050505050905090565b610b97611137565b73ffffffffffffffffffffffffffffffffffffffff16610bb5610ad4565b73ffffffffffffffffffffffffffffffffffffffff1614610c0b576040517f08c379a0000000000000000000000000000000000000000000000000000000008152600401610c0290612082565b60405180910390fd5b600073ffffffffffffffffffffffffffffffffffffffff168173ffffffffffffffffffffffffffffffffffffffff161415610c4557600080fd5b6001600860008373ffffffffffffffffffffffffffffffffffffffff1673ffffffffffffffffffffffffffffffffffffffff16815260200190815260200160002060006101000a81548160ff02191690831515021790555050565b600080610cab611137565b90506000600260008373ffffffffffffffffffffffffffffffffffffffff1673ffffffffffffffffffffffffffffffffffffffff16815260200190815260200160002060008673ffffffffffffffffffffffffffffffffffffffff1673ffffffffffffffffffffffffffffffffffffffff16815260200190815260200160002054905083811015610d71576040517f08c379a0000000000000000000000000000000000000000000000000000000008152600401610d6890612142565b60405180910390fd5b610d7e828686840361113f565b60019250505092915050565b600080610d95611137565b9050610da2818585611396565b600191505092915050565b610db5611137565b73ffffffffffffffffffffffffffffffffffffffff16610dd3610ad4565b73ffffffffffffffffffffffffffffffffffffffff1614610e29576040517f08c379a0000000000000000000000000000000000000000000000000000000008152600401610e2090612082565b60405180910390fd5b600073ffffffffffffffffffffffffffffffffffffffff168173ffffffffffffffffffffffffffffffffffffffff161415610e6357600080fd5b6000600860008373ffffffffffffffffffffffffffffffffffffffff1673ffffffffffffffffffffffffffffffffffffffff16815260200190815260200160002060006101000a81548160ff02191690831515021790555050565b610ec6611137565b73ffffffffffffffffffffffffffffffffffffffff16610ee4610ad4565b73ffffffffffffffffffffffffffffffffffffffff1614610f3a576040517f08c379a0000000000000000000000000000000000000000000000000000000008152600401610f3190612082565b60405180910390fd5b600073ffffffffffffffffffffffffffffffffffffffff168173ffffffffffffffffffffffffffffffffffffffff161415610f7457600080fd5b80600660016101000a81548173ffffffffffffffffffffffffffffffffffffffff021916908373ffffffffffffffffffffffffffffffffffffffff16021790555050565b6000600260008473ffffffffffffffffffffffffffffffffffffffff1673ffffffffffffffffffffffffffffffffffffffff16815260200190815260200160002060008373ffffffffffffffffffffffffffffffffffffffff1673ffffffffffffffffffffffffffffffffffffffff16815260200190815260200160002054905092915050565b611047611137565b73ffffffffffffffffffffffffffffffffffffffff16611065610ad4565b73ffffffffffffffffffffffffffffffffffffffff16146110bb576040517f08c379a00000000000000000000000000000000000000000000000000000000081526004016110b290612082565b60405180910390fd5b600073ffffffffffffffffffffffffffffffffffffffff168173ffffffffffffffffffffffffffffffffffffffff16141561112b576040517f08c379a000000000000000000000000000000000000000000000000000000000815260040161112290611fe2565b60405180910390fd5b61113481611954565b50565b600033905090565b600073ffffffffffffffffffffffffffffffffffffffff168373ffffffffffffffffffffffffffffffffffffffff1614156111af576040517f08c379a00000000000000000000000000000000000000000000000000000000081526004016111a690612102565b60405180910390fd5b600073ffffffffffffffffffffffffffffffffffffffff168273ffffffffffffffffffffffffffffffffffffffff16141561121f576040517f08c379a000000000000000000000000000000000000000000000000000000000815260040161121690612002565b60405180910390fd5b80600260008573ffffffffffffffffffffffffffffffffffffffff1673ffffffffffffffffffffffffffffffffffffffff16815260200190815260200160002060008473ffffffffffffffffffffffffffffffffffffffff1673ffffffffffffffffffffffffffffffffffffffff168152602001908152602001600020819055508173ffffffffffffffffffffffffffffffffffffffff168373ffffffffffffffffffffffffffffffffffffffff167f8c5be1e5ebec7d5bd14f71427d1e84f3dd0314c0f7b2291e5b200ac8c7c3b925836040516112fd9190612182565b60405180910390a3505050565b60006113168484610fb8565b90507fffffffffffffffffffffffffffffffffffffffffffffffffffffffffffffffff81146113905781811015611382576040517f08c379a000000000000000000000000000000000000000000000000000000000815260040161137990612022565b60405180910390fd5b61138f848484840361113f565b5b50505050565b600073ffffffffffffffffffffffffffffffffffffffff168373ffffffffffffffffffffffffffffffffffffffff161415611406576040517f08c379a00000000000000000000000000000000000000000000000000000000081526004016113fd906120e2565b60405180910390fd5b600073ffffffffffffffffffffffffffffffffffffffff168273ffffffffffffffffffffffffffffffffffffffff161415611476576040517f08c379a000000000000000000000000000000000000000000000000000000000815260040161146d90611fa2565b60405180910390fd5b611481838383611a18565b6000600160008573ffffffffffffffffffffffffffffffffffffffff1673ffffffffffffffffffffffffffffffffffffffff16815260200190815260200160002054905081811015611508576040517f08c379a00000000000000000000000000000000000000000000000000000000081526004016114ff90612062565b60405180910390fd5b818103600160008673ffffffffffffffffffffffffffffffffffffffff1673ffffffffffffffffffffffffffffffffffffffff1681526020019081526020016000208190555081600160008573ffffffffffffffffffffffffffffffffffffffff1673ffffffffffffffffffffffffffffffffffffffff168152602001908152602001600020600082825461159d91906121d4565b925050819055508273ffffffffffffffffffffffffffffffffffffffff168473ffffffffffffffffffffffffffffffffffffffff167fddf252ad1be2c89b69c2b068fc378daa952ba7f163c4a11628f55a4df523b3ef846040516116019190612182565b60405180910390a3611614848484611b19565b50505050565b600073ffffffffffffffffffffffffffffffffffffffff168273ffffffffffffffffffffffffffffffffffffffff16141561168a576040517f08c379a000000000000000000000000000000000000000000000000000000000815260040161168190612162565b60405180910390fd5b61169660008383611a18565b80600360008282546116a891906121d4565b9250508190555080600160008473ffffffffffffffffffffffffffffffffffffffff1673ffffffffffffffffffffffffffffffffffffffff16815260200190815260200160002060008282546116fe91906121d4565b925050819055508173ffffffffffffffffffffffffffffffffffffffff16600073ffffffffffffffffffffffffffffffffffffffff167fddf252ad1be2c89b69c2b068fc378daa952ba7f163c4a11628f55a4df523b3ef836040516117639190612182565b60405180910390a361177760008383611b19565b5050565b600073ffffffffffffffffffffffffffffffffffffffff168273ffffffffffffffffffffffffffffffffffffffff1614156117eb576040517f08c379a00000000000000000000000000000000000000000000000000000000081526004016117e2906120c2565b60405180910390fd5b6117f782600083611a18565b6000600160008473ffffffffffffffffffffffffffffffffffffffff1673ffffffffffffffffffffffffffffffffffffffff1681526020019081526020016000205490508181101561187e576040517f08c379a000000000000000000000000000000000000000000000000000000000815260040161187590611fc2565b60405180910390fd5b818103600160008573ffffffffffffffffffffffffffffffffffffffff1673ffffffffffffffffffffffffffffffffffffffff1681526020019081526020016000208190555081600360008282546118d6919061222a565b92505081905550600073ffffffffffffffffffffffffffffffffffffffff168373ffffffffffffffffffffffffffffffffffffffff167fddf252ad1be2c89b69c2b068fc378daa952ba7f163c4a11628f55a4df523b3ef8460405161193b9190612182565b60405180910390a361194f83600084611b19565b505050565b60008060009054906101000a900473ffffffffffffffffffffffffffffffffffffffff169050816000806101000a81548173ffffffffffffffffffffffffffffffffffffffff021916908373ffffffffffffffffffffffffffffffffffffffff1602179055508173ffffffffffffffffffffffffffffffffffffffff168173ffffffffffffffffffffffffffffffffffffffff167f8be0079c531659141344cd1fd0a4f28419497f9722a3daafe3b4186f6b6457e060405160405180910390a35050565b600073ffffffffffffffffffffffffffffffffffffffff168373ffffffffffffffffffffffffffffffffffffffff1614158015611a825750600073ffffffffffffffffffffffffffffffffffffffff168273ffffffffffffffffffffffffffffffffffffffff1614155b15611b1457600860008473ffffffffffffffffffffffffffffffffffffffff1673ffffffffffffffffffffffffffffffffffffffff16815260200190815260200160002060009054906101000a900460ff16611b13576040517f08c379a0000000000000000000000000000000000000000000000000000000008152600401611b0a906120a2565b60405180910390fd5b5b505050565b505050565b600081359050611b2d8161276a565b92915050565b600081519050611b4281612781565b92915050565b600081359050611b5781612798565b92915050565b600060208284031215611b6f57600080fd5b6000611b7d84828501611b1e565b91505092915050565b60008060408385031215611b9957600080fd5b6000611ba785828601611b1e565b9250506020611bb885828601611b1e565b9150509250929050565b600080600060608486031215611bd757600080fd5b6000611be586828701611b1e565b9350506020611bf686828701611b1e565b9250506040611c0786828701611b48565b9150509250925092565b60008060408385031215611c2457600080fd5b6000611c3285828601611b1e565b9250506020611c4385828601611b48565b9150509250929050565b600060208284031215611c5f57600080fd5b6000611c6d84828501611b33565b91505092915050565b600060208284031215611c8857600080fd5b6000611c9684828501611b48565b91505092915050565b611ca88161225e565b82525050565b611cb781612270565b82525050565b6000611cc8826121b8565b611cd281856121c3565b9350611ce28185602086016122b3565b611ceb81612376565b840191505092915050565b6000611d036023836121c3565b9150611d0e82612387565b604082019050919050565b6000611d266022836121c3565b9150611d31826123d6565b604082019050919050565b6000611d496026836121c3565b9150611d5482612425565b604082019050919050565b6000611d6c6022836121c3565b9150611d7782612474565b604082019050919050565b6000611d8f601d836121c3565b9150611d9a826124c3565b602082019050919050565b6000611db26015836121c3565b9150611dbd826124ec565b602082019050919050565b6000611dd56026836121c3565b9150611de082612515565b604082019050919050565b6000611df86020836121c3565b9150611e0382612564565b602082019050919050565b6000611e1b601e836121c3565b9150611e268261258d565b602082019050919050565b6000611e3e6021836121c3565b9150611e49826125b6565b604082019050919050565b6000611e616025836121c3565b9150611e6c82612605565b604082019050919050565b6000611e846024836121c3565b9150611e8f82612654565b604082019050919050565b6000611ea76025836121c3565b9150611eb2826126a3565b604082019050919050565b6000611eca6025836121c3565b9150611ed5826126f2565b604082019050919050565b6000611eed601f836121c3565b9150611ef882612741565b602082019050919050565b611f0c8161229c565b82525050565b611f1b816122a6565b82525050565b6000602082019050611f366000830184611c9f565b92915050565b6000604082019050611f516000830185611c9f565b611f5e6020830184611f03565b9392505050565b6000602082019050611f7a6000830184611cae565b92915050565b60006020820190508181036000830152611f9a8184611cbd565b905092915050565b60006020820190508181036000830152611fbb81611cf6565b9050919050565b60006020820190508181036000830152611fdb81611d19565b9050919050565b60006020820190508181036000830152611ffb81611d3c565b9050919050565b6000602082019050818103600083015261201b81611d5f565b9050919050565b6000602082019050818103600083015261203b81611d82565b9050919050565b6000602082019050818103600083015261205b81611da5565b9050919050565b6000602082019050818103600083015261207b81611dc8565b9050919050565b6000602082019050818103600083015261209b81611deb565b9050919050565b600060208201905081810360008301526120bb81611e0e565b9050919050565b600060208201905081810360008301526120db81611e31565b9050919050565b600060208201905081810360008301526120fb81611e54565b9050919050565b6000602082019050818103600083015261211b81611e77565b9050919050565b6000602082019050818103600083015261213b81611e9a565b9050919050565b6000602082019050818103600083015261215b81611ebd565b9050919050565b6000602082019050818103600083015261217b81611ee0565b9050919050565b60006020820190506121976000830184611f03565b92915050565b60006020820190506121b26000830184611f12565b92915050565b600081519050919050565b600082825260208201905092915050565b60006121df8261229c565b91506121ea8361229c565b9250827fffffffffffffffffffffffffffffffffffffffffffffffffffffffffffffffff0382111561221f5761221e612318565b5b828201905092915050565b60006122358261229c565b91506122408361229c565b92508282101561225357612252612318565b5b828203905092915050565b60006122698261227c565b9050919050565b60008115159050919050565b600073ffffffffffffffffffffffffffffffffffffffff82169050919050565b6000819050919050565b600060ff82169050919050565b60005b838110156122d15780820151818401526020810190506122b6565b838111156122e0576000848401525b50505050565b600060028204905060018216806122fe57607f821691505b6020821081141561231257612311612347565b5b50919050565b7f4e487b7100000000000000000000000000000000000000000000000000000000600052601160045260246000fd5b7f4e487b7100000000000000000000000000000000000000000000000000000000600052602260045260246000fd5b6000601f19601f8301169050919050565b7f45524332303a207472616e7366657220746f20746865207a65726f206164647260008201527f6573730000000000000000000000000000000000000000000000000000000000602082015250565b7f45524332303a206275726e20616d6f756e7420657863656564732062616c616e60008201527f6365000000000000000000000000000000000000000000000000000000000000602082015250565b7f4f776e61626c653a206e6577206f776e657220697320746865207a65726f206160008201527f6464726573730000000000000000000000000000000000000000000000000000602082015250565b7f45524332303a20617070726f766520746f20746865207a65726f20616464726560008201527f7373000000000000000000000000000000000000000000000000000000000000602082015250565b7f45524332303a20696e73756666696369656e7420616c6c6f77616e6365000000600082015250565b7f52656465656d206973206e6f7420616c6c6f7765640000000000000000000000600082015250565b7f45524332303a207472616e7366657220616d6f756e742065786365656473206260008201527f616c616e63650000000000000000000000000000000000000000000000000000602082015250565b7f4f776e61626c653a2063616c6c6572206973206e6f7420746865206f776e6572600082015250565b7f5472616e73666572206e6f7420616c6c6f7765642062792063616c6c65720000600082015250565b7f45524332303a206275726e2066726f6d20746865207a65726f2061646472657360008201527f7300000000000000000000000000000000000000000000000000000000000000602082015250565b7f45524332303a207472616e736665722066726f6d20746865207a65726f20616460008201527f6472657373000000000000000000000000000000000000000000000000000000602082015250565b7f45524332303a20617070726f76652066726f6d20746865207a65726f2061646460008201527f7265737300000000000000000000000000000000000000000000000000000000602082015250565b7f546f74616c20737570706c792077696c6c206578706563746564204e5454207360008201527f7570706c79000000000000000000000000000000000000000000000000000000602082015250565b7f45524332303a2064656372656173656420616c6c6f77616e63652062656c6f7760008201527f207a65726f000000000000000000000000000000000000000000000000000000602082015250565b7f45524332303a206d696e7420746f20746865207a65726f206164647265737300600082015250565b6127738161225e565b811461277e57600080fd5b50565b61278a81612270565b811461279557600080fd5b50565b6127a18161229c565b81146127ac57600080fd5b5056fea2646970667358221220a2fcc17c8dae8b818fefda0663df9135c98611876b596fcb8c897dafff530d6b64736f6c63430008040033",
  "linkReferences": {},
  "deployedLinkReferences": {}
}